:020000040800F2
:10000000180B0020D50000084585000893730008F0
:1000100000000000000000000000000000000000E0
:10002000000000000000000000000000C98F000870
:10003000000000000000000047850008CB8F00088A
:10004000E7000008E7000008B1890008E7000008A1
:10005000E70000082D21000837210008E70000080C
:10006000000000000D2100081D210008E700000825
:10007000E7000008E7000008E7000008E7000008C4
:10008000E7000008E7000008E7000008E7000008B4
:10009000E7000008E700000800000000E700000893
:1000A000E7000008E7000008E7000008C19F00081B
:1000B000E7000008E19F0008E7000008E7000008EB
:1000C0000348854601F0E8F900480047D9A5000833
:1000D000180B00200448804704480047FEE7FEE76D
:1000E000FEE7FEE7FEE7FEE749900008C1000008D2
:1000F000F0B51FB40646002082B0054640240191A9
:1001000000901BE0019922460F46304600F0BBFFED
:10011000049A059B801A994110D31046194622462D
:1001200000F0A1FF361A8F410197224601200021DD
:10013000009F00F098FF38184D4100902046641E43
:100140000028DFDC019B00982946324607B0F0BD4D
:10015000F8B500242546002904DA0E4601240021C2
:100160004042B141002B04DA1E46002352420125D1
:10017000B341FFF7BDFF8C4617461E46AC4203D085
:10018000002540428D41AC46002C02D0002657424B
:100190009E4161463A46334601B0F0BD30B5434317
:1001A00051435C18010C130C0D465D432C1980B2B1
:1001B00092B20546554351430A0C09044D19624158
:1001C0005843010C00044019514130BD03460B4314
:1001D0009B0703D009E008C9121F08C0042AFAD2FD
:1001E00003E00B780370401C491C521EF9D2704783
:1001F000D2B201E00270401C491EFBD270470022BF
:10020000F6E710B513460A4604461946FFF7F0FF15
:10021000204610BD30B505462A460B4610781C789E
:10022000521C5B1C002801D0A042F7D0002C03D048
:10023000002802D06D1CEFE7284630BD421C017833
:10024000401C0029FBD1801A704730B504460020BD
:10025000034600E05B1C934203D2E05CCD5C401B94
:10026000F8D030BD70B5104D002800D128680024AA
:1002700014E00A4602E09E4203D0521C1378002B81
:10028000F9D1DAB2224307D0002B06D0002C04D0DB
:1002900000210170401C04E00446401C0678002E3A
:1002A000E7D12860204670BD000000200FB400B5E3
:1002B0008DB009900B9010A900200091C0430A90C6
:1002C00000200C9006480690064807906A4609A848
:1002D0000F9900F01FFF0DB008BC04B018470000D4
:1002E0003511000855110008FFB50027FF4383B002
:1002F00000205C6801909E681D46A9697F1C0498D7
:1003000088470090296A88470028F6D10098401C49
:100310000CD0032040028443002E19DD600614D562
:1003200000982B2809D02D280FD103E00020C043CE
:1003300007B0F0BD012080020443A9697F1C049826
:100340008847761E0090002E02DD0098302803D0EA
:100350000598002825D035E0012040020443A96912
:10036000761E7F1C049888470090002E03DD7828B5
:1003700005D0582803D00598002810D022E0059811
:10038000002801D010281DD1012040028443A96912
:10039000761E7F1C049888470090102002E00820F9
:1003A00000E00A2005900DE0012149020C43059A66
:1003B0000199761E514308180190A9697F1C049881
:1003C00088470090002E05DD0599009800F08DFE0D
:1003D0000028E9DAE96904988847A00502D40120D9
:1003E000C043A5E7E00722D1600611D5600501985A
:1003F00000D5404229680A1D2A600968220501D5F6
:10040000087014E0220701D5088010E008600EE0B3
:100410002868011D29600068210502D50199017035
:1004200005E02107019901D5018000E0016038460F
:100430007EE7FFB5002083B000905068019091697D
:100440001446002697680498884705460C99069834
:10045000084305D009E0A169761C04988847054641
:10046000216A284688470028F5D1681C03D00198E6
:10047000C00704D017E00020C04307B0F0BD2068DB
:10048000011D2160006800900DE00198C00704D1B3
:10049000009805700098401C0090A169761C7F1E92
:1004A000049888470546002F1CDD681C1AD0069862
:1004B00000280FD0E817C00E401941118A00069994
:1004C0004009511840012A1A096801209040014250
:1004D000DBD107E00C980028D7D1216A284688474D
:1004E0000028D2D0E169049888470C98002807D1E9
:1004F000002E05DD0198C00702D10098002101708F
:10050000A068B84204DD0C98002804D0002F02D067
:100510000120C043B1E73046AFE70000FFB50878DF
:1005200089B01546FF2805D0491C2D2804D000228B
:10053000002407E000240BE00122F9E70A235C43D2
:100540000419491C0878FF28F8D1002A00D0644219
:10055000002004902A7801462D2A01D02B2A0FD1A1
:100560006D1C2D2A02D00022049209E00122FBE733
:1005700000260A2233466D1CFFF710FE3818714121
:100580002F78FF2FF4D10C9AA218069202460A4344
:1005900004D0FF23069A9133DA4205DA0021099844
:1005A0000A4606C00DB0F0BD0024B74AB54D264638
:1005B000079200F02FFF029006980391002801DABD
:1005C000474200E0074639050020AF4A001C514170
:1005D0000191009012E0F80707D022462B463046E2
:1005E000079900F021FB0646079122462B4610464C
:1005F000194600F019FB04460D467F10002FEAD182
:100600000698019B0028009A0399029806DA00F0E8
:1006100073FB3246079B00F06FFB05E000F004FB24
:100620003246079B00F000FB049A002A02D0012208
:10063000D2075140099A03C2B4E7FFB591B0002038
:1006400009900025ED432E209E685C681F460190AE
:10065000B9696D1C129888470090396A884700284C
:10066000F6D10098401C0AD00D20C0018443002E12
:1006700012DD00982B2809D02D280DD103E0002091
:10068000C04315B0F0BD012080020443B9696D1C60
:1006900012988847761E009003A9600501D52D2089
:1006A00000E02B206A461073491C0CA80F910290A1
:1006B0000AE0B9696D1C1298884700900120400239
:1006C00004431398761E0560002E02DD0098302842
:1006D000EFD001990098884245D18020044308E07A
:1006E0000998401E09900120400204431399681C98
:1006F0000860B9696D1C761E1298884700903028F2
:10070000EED030E00199884205D1200603D4802044
:100710000443761E1DE000980AF042FA002825D016
:10072000012149020C43009807AA0F99033230387F
:10073000761E914208D208700F98401C0F90200638
:1007400007D50998401E03E0200602D40998401CF2
:100750000990A00502D51399681C0860B9696D1C41
:10076000129888470090002ECCDC59E0002E57DD0F
:100770000098652801D0452852D1A00550D5032006
:1007800000028443B9696D1C761E12988847009058
:10079000002E0CDD2B2804D02D2808D1FF2001309D
:1007A0000443B9696D1C12988847761E0090E005D5
:1007B00001D52D2100E02B21029801700298401CE8
:1007C0000290019025E00120400204430EA9029806
:1007D0000131761E88420ED2009802993038000608
:1007E000000E087003D10299019881420AD902983B
:1007F000401C029006E0E00501D5244801E02348B2
:1008000040420990B9696D1C12988847009013986E
:100810000560002E04DD00980AF0C2F90028D2D14C
:10082000F969129888470F99FF200870029903AA66
:10083000087000200A900B900CA90AA8099BFFF7EA
:100840006DFEA00502D40120C0431AE72420044213
:1008500009D0E00713D138680B9A0A99031D3B6051
:10086000006806C00BE00B990A9800F0C1FB014636
:10087000E00704D13868021D3A600068016028462C
:10088000FFE60000000014400000F03FF1D8FFFF39
:10089000F7B5009C0F4600262578641C002D05D076
:1008A00000F016FC0068405DC007F5D12B2D02D08A
:1008B0002D2D18D0641E39462046029A00F05CFCAB
:1008C000002F04D03968A14201D100993960710527
:1008D000022400290BDA4042002803DD0AF086F8E2
:1008E0000460A007FEBD012080020643E3E7002864
:1008F000F8DA0AF07BF804600048FEBDFFFFFF7FD6
:1009000070B506460AF072F8046805460A2200210E
:100910003046FFF7BDFF2C6070BDF8B502464A4077
:10092000D40F42004B0052085B089A4202D20246A2
:10093000084611464A0023D0C30D4A00DDB2120E0C
:10094000AD1A202D35DA49020126490AF6058A1921
:10095000002C00D0524220214F1B1146B9402A41A1
:100960001018C20D9A4221D0002C17D0012D08DC9E
:10097000DA05801AD20F8019D207DBB200F0B2FC80
:10098000F8BDDA05801A012340001B06C018801844
:100990005A428018CA0F1043490007E04908C207AD
:1009A0001143DA05801A80194008801800F092FC83
:1009B000F8BD61000122511A001BF7E70122D2079E
:1009C0005140AAE70122D2075040A6E7024670B57F
:1009D0004A40D30FDB0740002DD04A002AD0010E39
:1009E000140E000212020919400A520A8418E50185
:1009F00004465443000A120A2E045043A419421913
:100A0000200CC543AA18120C0125AD03521C521923
:100A100012047F39240400D0521C104301D440003A
:100A2000491EC2B20C06C0092018401C4008802A8A
:100A300002D003E0002070BD40084000002900DA29
:100A40000020184370BD70B502464A40D50F4000E3
:100A50004A00ED0740085208002814D0002A12D09E
:100A6000C40DD30D41020120C0055202490A520AA9
:100A7000E41A091812187D34914201D3641C00E075
:100A80004900002C01DA002070BD0023914201D3FF
:100A9000891A0343400849000028F7D100290AD0E9
:100AA000914202D10121C90705E0914201D2012101
:100AB00001E00121C943E005C018401900F00AFC1B
:100AC00070BD0000F0B507460846584087B0C00F1B
:100AD000049048000E46590040084908BC1A884155
:100AE00005D2384631461E4617460B460246580088
:100AF000400810434CD0300D039040055900400D84
:100B0000490D0590401A0290402872DA180301211D
:100B1000000B09050843019004980092002805D0B5
:100B20000199524200208841009201900298402190
:100B30000A1A0199009800F096FA05460C466B4691
:100B400007CB00F0B1FAC0197141039A0E0D0023D2
:100B5000D71756401A467A40164344D0049A002AC2
:100B60002DD0029A012A039A15DC1205C01A914170
:100B700001263605001C7141D20F059ED207009355
:100B8000019202962A46234600F0F2FB07B0F0BD20
:100B900038463146FAE71605224A0F46B218C01AFF
:100BA000B74101210905001C4F4100187F41114642
:100BB00018187941E20F10436D19644113E0E20700
:100BC0006D0815436408C2071443039A01261205F1
:100BD000C01A91413605001C7141CE0740083043D0
:100BE0004908C01851412A46234600F0B4FBCDE71E
:100BF000FFE7049801224000C117121A00238B411D
:100C000004983146C417381AA141EEE730B40124E4
:100C1000E407634030BC55E730B40124E407614089
:100C200030BC4FE70000E0FFF0B51FB488B00B996F
:100C30000998002448400999C00F490049080991C2
:100C4000C0070B990090490049080B910999089831
:100C5000A64608431CD00B990A98084318D0099857
:100C600001244000420D4800410D0998240500036D
:100C7000000B204309900B980003000B20430B90BE
:100C800050181C494018002201901446104605E0F7
:100C9000002001460DB0F0BD032801DA034600E054
:100CA00003239C46C11A0AAE0AE05F0008ADED5B63
:100CB0004F00F75B7D430027AA187C41491C5B1E4F
:100CC0006145F2DD410004AB5A522104120C0A4383
:100CD000240C401C0828DFDB019802900099704624
:100CE00001910090059B049A0799069800F040FB3B
:100CF000D0E700000DFCFFFFF0B50C465C4085B06E
:100D0000E40FE40703944C0000266408590094465D
:100D1000490802460296224321D062460A431ED069
:100D20006200570D4A000E032303550D01240246AD
:100D30002C492405781B1B0B360B401823432643F4
:100D4000614600901C46501AB44103D30098401CE1
:100D5000009002E0921800985B41002803DA00201E
:100D6000014605B0F0BD0020012109050746864671
:100D700011E064461D46141BB54106D36546521B5F
:100D8000B341744607430C43A646CD0740084908C3
:100D9000284392185B4105460D43EAD1104618439B
:100DA00013D06046194650407140084306D0604653
:100DB000101AB34106D20122002306E000220123CB
:100DC000DB0702E00122D24353100098744601056C
:100DD000381C6141029C039D0019694100F0BBFA77
:100DE000BFE70000FD0300000122D207002800DB5E
:100DF000101A002900DB511A814201D801207047E6
:100E0000002070470122D207002800DB101A0029B9
:100E100000DB511A814201D3012070470020704746
:100E200010B5002904DB0C460121C9074042A1414D
:100E3000002B04DB1C460123DB075242A341101A9E
:100E40008B4101D2012010BD002010BD10B500293A
:100E500004DB0C460121C9074042A141002B04DB01
:100E60001C460123DB075242A341801A994101D25B
:100E7000012010BD002010BD10B5002904DB0C4678
:100E80000121C9074042A141002B04DB1C4601237C
:100E9000DB075242A34142404B401A4301D000209D
:100EA00010BD012010BDC217C10F504010B5401831
:100EB000CA079623002100F015FA10BD10B50022D4
:100EC0009623114600F00EFA10BD00000EB5C217B1
:100ED000C10F5040CA0740180021054B02930192F0
:100EE00000910A460B4600F043FA03B000BD000033
:100EF000330400000EB505490291002100910A4615
:100F00000B46019100F034FA03B000BD3304000039
:100F1000C20F410040020123400ADB05D207090E3F
:100F2000C0187F2901DA00207047962903DC962338
:100F3000591AC84001E096398840002AF4D040424E
:100F40007047000070B5CD0F4A0009030123090B5B
:100F50001B0519430B4BED070024520D9A4201DA91
:100F6000002070BD074B34339A4203DC9A1A00F01C
:100F70008AF802E00449511888402C43F1D04042DD
:100F800070BD0000FF030000CDFBFFFF4A00090316
:100F90000123090B1B051943094B10B5520D9A4249
:100FA00001DA002010BD064B34339A4203DC9A1A52
:100FB00000F069F810BD03495118884010BD0000C9
:100FC000FF030000CDFBFFFFC20FD2074000400827
:100FD0000BD0C10D0723DB01C91840020905400AE7
:100FE0001143C20840071143704700200146704773
:100FF000CB0FDB07490010B5490802460A4307D06A
:101000000A0D07240903E401090B121B002A01DC65
:10101000002010BDC900440F0C43C100E018D205E8
:10102000801800F057F910BD70B50446002903D0B0
:1010300000202022012310E0002801D00020C0431E
:10104000C046C0460DE02546D5408D4205D30D462D
:101050009540641B1D46954040191546521E002DB3
:10106000F1DC214670BD10B5202A04DB0146203A90
:101070009140002010BD914020239C1A0346E3407C
:101080001943904010BD10B5202A04DB0846203AD1
:10109000D040002110BD0B46D340D0402024A21ADE
:1010A00091400843194610BD10B5202A06DBCB1726
:1010B0000846203A1041C1170B4306E00B46134186
:1010C000D0402024A21A91400843194610BD0000C8
:1010D00000487047E0B3000810B50446FFF7F8FF7A
:1010E0000068005DC007C00F10BD3A2800D230383C
:1010F000202302469A43412A01D3104637388842BA
:1011000001D30020C0437047026813785118016072
:101110001846704710B5D160044951610449116205
:1011200000211161114600F0CFF910BD091100082E
:10113000D91000084268002A08D001680B78491CC1
:10114000002B03D0521E06C0184670470121C16013
:10115000881E70474268002A0BD0C3680168002BC4
:1011600007D183688B4204D0491E521C06C0002060
:1011700070470020C0437047F7B582B0029C00273B
:101180002078641C15460197302802D0002D15D018
:1011900015E020780127641C782804D0582802D054
:1011A000002D09D00BE0002D01D0102D07D1002714
:1011B00010252078641C02E0082500E00A2500269E
:1011C000009610E00099012769430818020C29468F
:1011D00080B2714300908E183804864201D30120FA
:1011E00001902078641C2946FFF77FFF0028E9DA88
:1011F0000398002805D0002F01D0641E00E0029C57
:1012000004600198002806D009F0F0FB022101607B
:10121000C81E05B0F0BD009930040843F9E700008E
:101220000FB400B589B00A460DA9009100230C99AE
:10123000002ACB60234B0693234B079301D0042352
:1012400000E00023214A0292214A089201930246BB
:101250006B460020FFF7F1F909B008BC04B018474D
:10126000F0B585B007460020C04301901E4600201F
:1012700015460C460091029104903B466A46314661
:1012800004A8FFF7CDFF049902466018002D05D091
:10129000002901D0034600E023462B6000290ED030
:1012A000002A02DD0099814209D0001B01900094C0
:1012B0003B466A463146029404A8FFF7B1FF05B0E9
:1012C000F0BD00003511000855110008FFFFFF7F39
:1012D000D9100008002904DA401C490001D1400857
:1012E0004000704770B40024050C05D110240004A0
:1012F00002D1002921D01124050E01D100020834A9
:10130000050F01D10001241D850F01D18000A41C0F
:10131000002801DB4000641C002908D020252E1B7A
:101320000D46F540A14000D00121294308430106A4
:101330001B1B000ADB1D02D5002070BC7047DB05BB
:10134000181880180029F8DA401C4900F5D170BC43
:1013500040084000704710B5002B08DA0024401CFC
:10136000614192185B411A4301D14008400010BD11
:10137000F0B51FB482B005460C0003D0084609F052
:101380001DFB02E009F01AFB2030024600902146C6
:101390002846FFF768FE049B059A04460F4618434B
:1013A0001143084314D0184610431BD00098402125
:1013B0000A1A18460599FFF766FE05460E46009A7A
:1013C00005990498FFF74FFE084305D0012004E07B
:1013D0002046394607B0F0BD0020C11705430E4333
:1013E0002C43374300990E986305401A7905E40AA7
:1013F00000220C43FD0A0A3002D500200146E9E72D
:101400000105101969410C9C0D9D00196941FFF7F8
:10141000A2FFDFE70EB5054A0292002200921346B2
:101420000192FFF7A5FF03B000BD000033040000E8
:101430004A0009030123090B1B0519430A4B10B588
:10144000520D9A4202DA0020014610BD064B343399
:101450009A4203DC9A1AFFF716FE10BD034BD2180E
:10146000FFF701FE10BD0000FF030000CDFBFFFFF2
:1014700010B5002904DB0124E40740428C412146D9
:10148000002B04DB1C460123DB075242A341994297
:1014900000D1904210BD00001CB5094800900948D9
:1014A000019005460126009C05E0E36807CC334324
:1014B0000C3C98471034AC42F7D3FEF705FE000011
:1014C000E0B9000800BA0008F3B58DB000200A901A
:1014D00001200B90002608460C300C4609906269EA
:1014E000012109989047051E2ED0252D2DD0216A67
:1014F0008847002818D06269012109989047216A1D
:1015000088470028F7D1411E62690998904700E09A
:10151000761CA1690D988847216A88470028F7D171
:10152000E1690D988847DAE7A1690D988847074671
:10153000A84201D1761CD2E7E1690D9888477F1C4B
:1015400002D10A98002877D049E1002762693D4618
:101550003946099890472A280CD1626901210998D7
:101560009047012506E00A214F433F18303FEBD456
:1015700010200543626901210998904701463039DE
:101580000A2903D29B498F42DEDCECE7E90600D44E
:10159000994F6C280AD04C2810D0682824D06A288B
:1015A0002ED074280CD07A280AD00DE0626901216F
:1015B000099890476C2823D004211CE02020054383
:1015C0006269012109989047A760656065284FD03E
:1015D00026DC582839D01ADC452849D012DC2528C9
:1015E00034D04128B0D143E0626901210998904785
:1015F000682802D008210D43E6E70120C002DEE79B
:101600000220DCE7462833D047282CD130E05B2885
:1016100070D061282CD063286CD0642823D161E07D
:101620006F284FD009DC662822D0672820D069288F
:1016300026D06E2817D12EE0CDE070284DD073282B
:101640006FD075284ED078280DD154E0A1690D983F
:1016500088470546252800D16CE7E1690D98884741
:101660006D1C00D16DE7BAE00A224CE00A2252E07C
:10167000012023466A46C0430D99FEF7DEFFA3E032
:101680002846402108436060A807234601D5002270
:1016900039E000223FE0E80700D020E72068011D84
:1016A00021600068290501D5067018E7290701D5D2
:1016B000068014E7A90703D5F117066041600EE71D
:1016C00006600CE72846402108436060A8072346CF
:1016D00001D5082217E008221DE0484928460840A5
:1016E000606016E02846402108436060A807234652
:1016F000BCD5B9E715E02846402108436060A8073B
:1017000007D5234610220120C0430D99C046C0468C
:101710005AE0234610220120C0430D99FEF7E4FD54
:1017200052E000210C910B460091632802D05B2807
:1017300007D043E0E80601D40120A060012000901A
:101740003CE062690121099890475E2805D101209B
:101750000C9001466269099890472169002906D1D9
:101760000B4601AA8F00491CD3510829FADB002837
:1017700035D0216900290ED1C117C90E09184A11A7
:10178000930001AA9A1849094901411A01201368D6
:1017900088400343136062690121099890475D28DE
:1017A000E5D10C98002808D0002001AB81005A58E0
:1017B000401CD2435A500828F8DB01AB01202246D6
:1017C000C0430D99FEF735FE00280ADA401C06D109
:1017D0000B98002803D00020C0430FB0F0BD0A983A
:1017E000FBE7E90702D10A99491C0A913618002043
:1017F0000B9074E6CCCCCC0CFFFFFF7FF1F7FFFF22
:1018000070B505460068816882680024D20726D03A
:101810000222114023D1816805220A40012A16D1F3
:101820008168434A0A40911C81600321016002F0F3
:101830003BF9064628688068C00710D002F034F9EA
:10184000811B28680329F6D38168C907F3D0A86DE6
:1018500010210143A965E86D01242043E865204675
:1018600070BDC046F0B581B0054600240094006804
:101870008168C9071CD181682D4A2F3211420AD0D4
:10188000A86D10210143A965E86D01242043E86596
:10189000204601B0F0BD8168254A11400127394337
:1018A000816024480068000205D4687E012825D1A3
:1018B000204601B0F0BD204800682049FFF7B4FB86
:1018C000401C009000980028EFD00098401E009027
:1018D00000980028E9D00098401E00900098002849
:1018E000E3D00098401E009000980028DDD00098BA
:1018F000401E009000980028E7D1D6E702F0D4F807
:10190000064628680168C907D2D18168C90704D191
:101910008168074A11403943816002F0C5F8811B94
:1019200028680329EED30168C907EBD1A8E7C046B0
:10193000E8FFFF7F0827014014000020400D03004E
:1019400070B584B0044603AA202010700026F54329
:1019500000951348B821012302F036FB002802D07D
:10196000284604B070BDB42001F01EFF02AA168004
:1019700000950B48B821022302F054FA0028EFD159
:1019800002A8008840BAFFF799FA0649FFF75BF80A
:10199000FFF7BEFA20803546284604B070BDC04629
:1019A000D40300209A99993FF0B58DB00CA8002679
:1019B0000670A548EC2102226424234602F02EF989
:1019C000002803D0012528460DB0F0BD0294012562
:1019D00001950CAF00979C48EC21D0222B4602F0D9
:1019E000CDFB0028EFD138785828ECD17D20C000FD
:1019F00002901820019006A800909348EC218822BC
:101A000001252B4602F0BAFB0028DCD18F4806994D
:101A1000018007998180089901810999818106A92E
:101A20004A884280CA88C2804A894281CA89C28162
:101A30000A9A02824A8A42820B9A8282C98AC182A7
:101A400005A8B721017004AA039290211170012505
:101A50000090019502947C48EC27F42239462B46ED
:101A600002F0AEFC0398009001950294F5227648AE
:101A700039462B4602F0A4FC354628460DB0F0BD91
:101A8000F0B58DB0064664200290062001900BA8A8
:101A900000906D48EC21F72201252B4602F06EFBE9
:101AA000002802D028460DB0F0BD0BA9087800032D
:101AB0004A78120110188A78120984180125EA045C
:101AC0009442EFD0C87800030B791B0118184979AC
:101AD000090941189142E5D0099402225B4DAA5EA2
:101AE000C9082B885C00091B5143C9120422AA5E55
:101AF0000009C01A4043000B5043801344180520CE
:101B0000604380300012FFF7CEF96649FEF79BFF75
:101B10000A9630604E482618F7170820285EC1172D
:101B200032463B46FEF73AFB0446000D09030D180A
:101B300030463946324607973B46FEF72FFB0746AD
:101B40000A20424A125ED317089738460691FEF7DC
:101B500025FB0A06000A80180912220310186941A1
:101B60000124E2038918394AD28800252B46FEF762
:101B700015FBCB174A101046184328465ED00E209E
:101B8000324904920A5E0F460593D31730460799EF
:101B9000FEF704FBC20B4904891840042205099B87
:101BA000D21A5608D207141A8E4110203A5ED31763
:101BB00008980699FEF7F2FA0C22BA5ED20089184C
:101BC000201A8E41234A00233146FEF7E7FA049A91
:101BD000059BFEF7BDFA04460E46C804610B0818C3
:101BE000711302460B46FEF7D9FA1622BA5ED317D6
:101BF000FEF7D4FACA01400E80184F16001909905A
:101C00007741142011490A5ED31720463146FEF76A
:101C1000C5FA4A03C00C8018C90C099A10187941FA
:101C20000906000A40181221084A515E09014018AD
:101C3000FFF744F97721C905FEF7C8FE0A99486005
:101C400028460DB0F0BDC04680030020D000002023
:101C5000000CFEFF350C000010B504460D49FFF7DF
:101C6000D1F8002812D10C492046FFF7BDF8002812
:101C70000ED10A492046FEF750FE0949FEF7E3FE61
:101C80000849FEF7A3FEFFF743F910BD642010BD1D
:101C9000002010BD6666864033336340333363C033
:101CA0006466263F0000C842F0B587B0574802215D
:101CB0000026324601F0EFFE642001F075FD0A2790
:101CC000484D02960DE0284601F040F804462846AB
:101CD00001F066FA012001F067FDA0B286197F1EAF
:101CE0001DD0072003900690029C05943C48049068
:101CF00004A9284600F05CFE0028EBD1012001F089
:101D000053FD284601F01CFA0028029CE2D1642110
:101D1000284601F097F90028D5D00024D7E70A25F6
:101D200030462946FFF780F9044600040FD02F48BB
:101D30000088FFF7C3F82E49FEF748FE0646A0B21A
:101D4000FFF7BCF801463046FEF77DFE00E026486E
:101D500001900027234C02970DE0204600F0F6FF8B
:101D60000646204601F01CFA012001F01DFDB0B22C
:101D7000C7196D1E1CD003980690029E05961D483B
:101D8000049004A9204600F013FE0028ECD10120A5
:101D900001F00AFD204601F0D3F90028029EE3D1AC
:101DA0006421204601F04EF90028D6D00026D8E75D
:101DB00002210122154801F06EFE0A213846FFF784
:101DC00033F980B2FFF77AF80B49FEF73CFE014683
:101DD0000198FEF7FBFD0146FEF79FFD07B0F0BD41
:101DE000001000B09C02002033335340A46EFF1F4C
:101DF000000040400001002000F07F4580B503480E
:101E00000221012201F047FE80BDC04600140050AF
:101E1000F0B591B0404E3078012874D13F4F3888EA
:101E2000002837D03A886C463D4D20462946FEF7BB
:101E3000CDF9388800212154317040212846FEF721
:101E4000DEF938A0214608F08DFD3CA1082220468D
:101E5000FEF7FBF9002824D068463BA10622FEF7D6
:101E6000F4F900282CD0684639A10722FEF7EDF9D5
:101E7000002834D0684638A10822FEF7E6F9002889
:101E800033D0684637A10A22FEF7DFF900283CD09C
:101E900037A034E00020307021484021FEF7AFF930
:101EA0002FE068460830FEF72BFD01468938800890
:101EB000DC2812D835484160454808F053FD20E041
:101EC0006846801D00211022FEF7E2FC2F490881A0
:101ED00081B23D4808F046FD13E03C480FE000F0B9
:101EE000C3F800280AD0374809E0344809F026FA38
:101EF000642001F059FC02F0B3FC02E0304809F024
:101F00001DFA08F063F811B0F0BD2048426801895D
:101F10001FA008F027FDF4E77000002072000020E9
:101F20005C010020526563656976656420636F6DAE
:101F30006D616E643A2025730D0A000041542B46F2
:101F40005245513D0000000041542B49443D0000E2
:101F500041542B534156450041542B52455345544F
:101F60000000000041542B434F4E4649473F0000BC
:101F70004552524F523A20556E6B6E6F776E20630A
:101F80006F6D6D616E642E0D000000005001002029
:101F900043757272656E7420436F6E666967202D9B
:101FA0003E2049443A20307825582C2046726571ED
:101FB0003A202564204D487A0D0A000086B90008B1
:101FC00057B9000834B90008F3B80008A2B90008EE
:101FD00010B9000870B584B001A800240C22214675
:101FE00008F0DCF848480199814234D1404A13682E
:101FF0009D6801210D439D605A251D70156801AB38
:102000005E782E7015689E782E701568DE782E70BA
:102010001568029E2E7015685E792E7015689E797F
:102020002E701568DE792E701568039E2E70156867
:102030005E7A2E705B891268126892B293420AD15E
:102040003048039A029B019C0460436082600C4606
:10205000204604B070BD2B491322FF23B23309C1BF
:102060000A60204604B070BDF0B583B0254C264808
:1020700020601F4801688A68012313438B605A223D
:102080000A70016862780A700168A2780A700168B3
:10209000E2780A70016822790A70016862790A7030
:1020A0000168A2790A700168E2790A700168227AEF
:1020B0000A700168627A0A70006800686081002511
:1020C000284607F095FF0C2620462946324608F0A0
:1020D0008FF86F4638462946324608F05FF82046AA
:1020E00039463246FEF7B1F84142484103B0F0BDEF
:1020F0000003002003481321034AFF23B2330CC01E
:1021000001607047500100205A5A5A5A80B502485F
:1021100001F0F0F980BDC0467400002080B502488F
:1021200001F0E8F980BDC0462403002080B50120FD
:1021300001F0C8FB80BD80B5042001F0C3FB80BD69
:1021400072B602F08DFBFEE770B50446EC4D686098
:10215000284608304821FEF752F801263102E248AD
:10216000FEF74DF80020688020680E2101622046AD
:102170002946324604F0E2FF002802D0DB4809F08D
:10218000DDF870BDF0B589B00446A6A1FEF742F8AF
:10219000002800D1C9E0A4492046FEF763F80028D2
:1021A00000D1F9E007467D200001019000242020A5
:1021B0009D4D06900590039402940794049408E0C2
:1021C000002630462946FEF74DF80746641C0028D5
:1021D00059D0601E0828F3D878440079400087441D
:1021E0000A2C1B21043033243B00384609F087F8C1
:1021F00004900391E4E73846FEF720F80628DFD381
:102200008A4B18460A3000901A460832093338467D
:102210008BA1FEF74BF8D3E7384609F070F802902F
:102220000791CDE738780590CAE7384609F067F896
:10223000FEF7DEFE7D498863C2E738787B49087483
:10224000BEE738780690BBE7384609F058F8FEF745
:10225000CFFE76494863B3E73846FDF7EFFF06281F
:10226000AED108AE0096714B1A460B320C3338468D
:102270006FA1FEF71BF830880199884200D2401800
:102280006A49C8819CE76948007C412800D08EE0FB
:10229000029D2846079F394632463346FEF7ECFD3D
:1022A000002830463146069C2DD100220192684B11
:1022B00028463946FEF720FDFEF744FE07970746FD
:1022C00064207843FEF702FE02460B462846079933
:1022D000FEF79CFC054602913846FEF7F7FD0746DF
:1022E00007915C4B28460299019AFEF705FD3A4694
:1022F000079BFEF7E7FBFB22059B1A40532A02D1FE
:102300000122D20751402022484B059D9D549861DF
:10231000D961049D2846039F394632463346FEF76D
:10232000ABFD002845D0314671E04BA12046FDF7BA
:1023300071FF00283BD03C492046FDF793FF002861
:1023400035D00025384C394E06E000202146FDF7F7
:1023500089FF6D1C00282AD0A91F0329F5D8C04683
:102360007944097949008F440712010C08F0C7FF2E
:10237000FEF73EFE3064E8E7FEF7C2FA3C217054F7
:10238000E3E708F0BCFFFEF733FE7064DDE7FEF71D
:10239000B7FA3D217054D8E72448017C412906D181
:1023A00000268661C6612024045531462FE009B01D
:1023B000F0BD00220792264B28463946FEF79CFCCA
:1023C000FEF7C0FD064664207043FEF77FFD02461F
:1023D0000B4628463946FEF719FC04460F463046A0
:1023E000FEF774FD06460D461A4B2046069C3946FC
:1023F000079AFEF781FC32462B46FEF763FB064642
:10240000FB202040532802D10120C0074140482032
:10241000064A01231354302014549662D16209B045
:10242000F0BDC046524D4300F1B80008E80000205E
:102430002532686875253268687525326875000030
:1024400025326868752532686875253268687500B8
:102450000000594000004E404747410080B52848E1
:102460004068002801D004F0F1F980BDB0B5244CDB
:10247000618820780A2808D1002906D01A4800254A
:102480004554FFF77FFE658007E00D2805D0FE2943
:1024900003D8154A5054481C6080606801222146C8
:1024A00004F04CFEB0BDC04670B5154C6568002DFB
:1024B00018D0204608304821FDF7A1FE0126310240
:1024C0000948FDF79CFE0020608028680E2101620B
:1024D00028462146324604F031FE002802D0034847
:1024E00008F02CFF70BDC0469C010020C7B8000852
:1024F00080B503494868012204F020FE80BDC04633
:10250000E8000020F0B589B0044600270897542061
:10251000205C012803D10225284609B0F0BD2646DB
:102520005436012535702046FFF76AF921688A681C
:10253000A36DD2073FD10390812252009343981C90
:10254000A065C868CA68DE4B1340CB608A68DD4B63
:102550001A40D21818328A60DB4A024002920846BA
:10256000B4300690D94A8B68002B2CD5089B5B1C95
:102570000893089B934200D997E18B68002B22D5E2
:10258000089B5B1C0893089B934200D98DE18B68E4
:10259000002B18D5089B5B1C0893089B934200D91D
:1025A00083E18B68002B0ED5089B5B1C0893089B6E
:1025B0009342D8D979E110210B433770A3650546C2
:1025C000284609B0F0BD0698036888680596F74E5E
:1025D00030403018059E183088607F2004900340FA
:1025E0008868002824D50898401C089008989042D4
:1025F00000D95AE1886800281AD50898401C08902C
:102600000898904200D950E18868002810D50898B1
:10261000401C08900898904200D946E1886800283C
:1026200006D50898401C089008989042D8D93CE1FB
:102630000698006801978F68DC4E3740F719059EB1
:1026400018378F60019F0095049D2840009DC31896
:102650008868002824D50898401C08900898904263
:1026600000D922E1886800281AD50898401C0890F3
:102670000898904200D918E18868002810D5089879
:10268000401C08900898904200D90EE18868002804
:1026900006D50898401C089008989042D8D904E1C3
:1026A000069800688F68C14E3740F719059E1837A5
:1026B0008F60019F049D2840009DC31888680028F2
:1026C00024D50898401C08900898904200D9ECE066
:1026D000886800281AD50898401C089008989042ED
:1026E00000D9E2E08868002810D50898401C0890BE
:1026F0000898904200D9D8E08868002806D5089844
:10270000401C089008989042D8D9CEE006980068FE
:102710008F68A64E3740F719059E18378F60019FC6
:10272000049D2840009DC3188868002824D5089877
:10273000401C08900898904200D9B6E088680028AC
:102740001AD50898401C08900898904200D9ACE02F
:102750008868002810D50898401C08900898904276
:1027600000D9A2E08868002806D50898401C089087
:1027700008989042D8D998E0069800688F688B4EE8
:102780003740F719059E18378F60019F049D284038
:10279000009DC3188868002822D50898401C08901E
:1027A0000898904200D980E08868002818D50898D9
:1027B000401C08900898904277D8886800280FD568
:1027C0000898401C0890089890426ED888680028A5
:1027D00006D50898401C089008989042DAD964E021
:1027E000069800688F68714E3740F719059E1837B4
:1027F0008F60019F049D2840009DC31888680028B1
:1028000021D50898401C0890089890424DD88868B7
:10281000002818D50898401C08900898904244D881
:10282000886800280FD50898401C089008989042A6
:102830003BD88868002806D50898401C089008985E
:102840009042DBD931E0069800688F68574E3740D8
:10285000F719059E18378F60019F049D2840009D41
:10286000C3188868002833D50898401C0890089839
:1028700090421AD8886800282AD50898401C0890E9
:102880000898904211D88868002821D50898401CE3
:1028900008900898904208D88868002818D50898A9
:1028A000401C089008989042DBD93770A06D102129
:1028B000014302208143A165284609B0F0BDC0460E
:1028C000FC7FFFFFE8FFFF7F03800000FFB70200EF
:1028D000069800688A68354D2A4001252A438A6097
:1028E000049A1040C018C00800900869800F29D1D0
:1028F0000F208004C04B1B6803409B0C072B21D387
:10290000D81E012383400793079840080790079833
:10291000002817D00798401E07900798002811D06C
:102920000798401E0790079800280BD00798401E74
:1029300007900798002805D00798401E0790079831
:102940000028E7D1069B1868049A9043009A104328
:1029500018608868F74A1040022204921043886089
:1029600001F0A2F8069020688168C90713D001F031
:102970009BF80699411A20680329F5D38168C90795
:10298000F2D0A06D10210143A165E06D2843E06500
:10299000284609B0F0BDC168029A1143C160A16D1B
:1029A00001230B4304988343039806E6E8FFFF7F67
:1029B000F0B587B0002406945422825C012A03D12A
:1029C0000222104607B0F0BD0546543501222A7098
:1029D00003689E68760714D406694A68022A18D1EB
:1029E00004200643794886426AD17748C0430E687E
:1029F000F1430143986A08409862002E224663D44E
:102A0000D0E0816D20230B4383652C70104607B006
:102A1000F0BD04273E436D4FBE4263D10F68384678
:102A2000694A10409A6A02439A6238025A6982439C
:102A3000896801406F48084010435861002F2246C2
:102A400000D4AFE0C048066807208305314619402E
:102A50006A4887425C4A6BD1501C304068D1BA4EFC
:102A60003068984301435018401C30606648006845
:102A70006649FEF7D9FA0C2141430C3106910698BC
:102A80000028224600D18DE00698401E0690069848
:102A9000002800D193E00698401E06900698002872
:102AA00000D18CE00698401E06900698002800D1C0
:102AB00085E00698401E069006980028E4D17EE046
:102AC0000E68002E22466DD59F4801684C4A9642FA
:102AD0006CD04C4A964253D0484A9642224661D125
:102AE000052264E00E680496374F3E4001961F268B
:102AF00016400F27B7400297076E0597049F002FD7
:102B000003960AD0002F08D07E423E403746304E12
:102B10007E43F70E2FA6F65D00E020260096029F6A
:102B2000059EBE430596019E002E0ED0009E0FE02E
:102B30000120334A974226D10206914223D2824E87
:102B400030689843014311432AE0049E7600F60E54
:102B5000039FBE403746059E374307669208C0690B
:102B600090420BD90298C0439A6A0240049FB80071
:102B7000000F039EB0401043986256E7049F54E74D
:102B80000322D20514E01F4A974222460AD180054B
:102B90000640224606D16C4E32689A4311430143E7
:102BA00031600CE02C70104607B0F0BD0322920596
:102BB0001140072292050368934359180160224689
:102BC0002C70104607B0F0BDFFFF7F0004000080AE
:102BD00031B57C0700011C021D0E18031E16140FD0
:102BE000191104081F1B0D17151310071A0C1206D4
:102BF0000B050A0900FFFF7F08270140000800AC11
:102C0000002000B4001000B014000020400D0300AC
:102C100070B500286AD00446806D02263043A06556
:102C200020688168490763D481688268D20726D00A
:102C3000314024D1816805220A40012A16D18168D9
:102C40003C4A0A40911C81600321016000F02CFF86
:102C5000054620688168C90711D000F025FF411B97
:102C600020680329F6D38168C907F3D0A16D10222B
:102C70000A43A265E16D01252943E16502E00121D6
:102C8000A16500258168C04A0A40826041682A4ADD
:102C90000A40426029490160C168294A0A40C2606D
:102CA0004169072291434161816A00268662016A77
:102CB000244A11400162416A11404162C16A1140D7
:102CC000C1620321890702698A4302617F2080046F
:102CD000B2490A6882430A60204600F061F9542034
:102CE0002654E6652666A665284670BD012070BD9F
:102CF0008168890704D481680E4A0A4010328260D4
:102D000000F0D2FE05462068816849078CD500F0A6
:102D1000CBFE411B20680329F6D381684907F3D510
:102D2000A16D10220A43A265E16D01252943E165E9
:102D3000ACE7C046E8FFFF7F60F4FFFF9F0B000099
:102D400000021E8300F000F0082701400068006CBC
:102D500070470000F0B589B0044600200890002CB0
:102D600077D00790A06D002807D12546543520461E
:102D700000F02AF900202870E06501273D07266849
:102D8000B068C00027D4B0687F4901402943B160D2
:102D90007E4800687E49FEF747F94000801C089095
:102DA0000898002817D00898401E08900898002816
:102DB00011D00898401E0890089800280BD0089859
:102DC000401E08900898002805D00898401E0890DA
:102DD00008980028E7D1B068284208D1A06D1021DA
:102DE0000143A165E06D012107910843E065B068EA
:102DF00004210140A26D102002405118A16D2BD179
:102E000006900F20C7433A46F33A1140891CA1654A
:102E1000B168C9077DD10390049727462037216BFD
:102E20004A1E91410D03A168227E92030A43617EEE
:102E3000C9031143A27E50030843E36803432B43B5
:102E40000120C507216900290590029509DAA943E7
:102E500008E0012009B0F0BD0143A165384609B082
:102E6000F0BD41050B43387B45001D4338780128F0
:102E700009D1002A11D0A06D20210143A165E06D88
:102E800005990843E065626A002A0CD0072080019A
:102E90000240A16A1143294306E005980004054356
:102EA000626A002AF2D12946F0683A4A02400A438F
:102EB000F2600320820763681D461540E16C387F8D
:102EC00001280ED1206C0090676CA06C01900098D6
:102ED0000743019807432F430F43059807433D4697
:102EE00000E00D43049F30692B49014029433161C3
:102EF0000298834203990CD093420AD00598800728
:102F0000834206D08804034024490A688243D018CB
:102F10000860706907229043656B2843706170698F
:102F200070218843A16B090101437161216901236B
:102F30005805814203D000290BD1B06A07E0B06A7E
:102F4000E06980001C301C2101408F40206E384316
:102F5000B06270691040A8420AD10020E065A06DFF
:102F60000121014302208143A165079809B0F0BD0A
:102F7000A06D0699084302218843A065E06D1843BF
:102F8000E065184609B0F0BDE8FFFF6F14000020AF
:102F9000400D03000102DEFF02FCFF1F0827014075
:102FA00080B500682549884200D080BD0120000519
:102FB00004490A6882430A6005200007102100F0D6
:102FC00005FC80BD60100240B0B594B004460025F9
:102FD00013951295119510950F9501A8001D342198
:102FE000FDF70DF920681549884201D014B0B0BD35
:102FF0000124A003019001A801F082FE002801D065
:10300000FFF79EF820050E494A6902434A614A6962
:103010000240009200980868204308600868204039
:10302000009011950320109010200F9005200007AC
:1030300000990FA900F05EFC14B0B0BD002401405F
:103040004C100240F0B581B00D4604464069082896
:1030500001D1082704E02068C068C00755D10427C3
:1030600000F022FD06462168086838421CD0012085
:103070004202A36D1343A365CA681205920F54D18F
:10308000A27E002A51D10A6812074ED58A685207DB
:1030900042D4224658324B680C25AB434B60FF2587
:1030A00002351368AB433EE0681C2AD0002D0CD1DA
:1030B00000F0FAFC2168086838420FD008683842EE
:1030C000F6D0D4E708683842D1D100F0EDFC801B7F
:1030D0002168A842F6D908683842F3D1542000216B
:1030E0002154A06D04210143A165032001B0F0BD6E
:1030F00008683842BBD108683842B8D108683842FD
:10310000B5D108683842F3D0B1E7A06D2021014362
:10311000A165012001B0F0BDA26D20231343A3657A
:1031200022465C32E36D03431360227E0020002AB6
:1031300001D001B0F0BD0C220A6001B0F0BD00006A
:1031400070B50146006882680220520711D45422EB
:103150008A5C012A0DD00C465434012005462070AB
:103160000E460846FEF77EFB002803D000202070A4
:10317000284670BDB06D09490140012000020818C1
:10318000B0650020F06531681C220A6020708A68F2
:10319000344B13401A1D8A6070BDC046FEF0FFFF1D
:1031A000F0B581B004465420205C012802D10220F1
:1031B00001B0F0BD2646543601273770206881687B
:1031C00049072AD481688268D2071FD002221140A1
:1031D0001CD1816805220A40012A36D18168214A22
:1031E0000A40911C81600321016000F05DFC0546EE
:1031F00020688068C00709D000F056FC411B206899
:103200000329F6D38168C907F3D01EE0FF200230FE
:10321000A16D8143583400201EE08168890704D4E1
:103220008168104A0A401032826000F03DFC054679
:10323000206881684907C5D500F036FC411B20682D
:103240000329F6D381684907F3D5A06D1021014306
:10325000A165E16D5C34384600223270394321604B
:1032600001B0F0BDE8FFFF7F70B503460120CC0739
:1032700020D0114C0C40651EAC4103261546F5418B
:10328000032D17D87D442D796D00AF440B0105093E
:103290000B4C0C400ED105E0084C0C400AD101E06B
:1032A000002C07D1186841618168182399431143A4
:1032B0008160002070BDC04680FFFF7F00FFFF7F60
:1032C0000000FF7FB0B50125002814D00446407FE0
:1032D000002804D100202077204600F033F8022097
:1032E00060772079002808D0A168E2682046FFF7BF
:1032F000BBFF002808D02846B0BD206810494161B6
:10330000816818229143816000256079002801D0EE
:10331000216900E0E94320680161132149018268C5
:103320008A436169114381600B21C90182688A4324
:10333000A16911438160012060772846B0BDC04675
:10334000B71DC10481B000680849884201D001B0AE
:1033500070470120000306490A6802430A600968B1
:1033600001400091009801B07047C0460030024013
:103370004810024070B500282CD0014624314A780C
:10338000022A29D1046822680E239A432260426CE3
:1033900015682F4B1D401560256801229543256057
:1033A000046C1C2525401446AC408B4D2E682643EA
:1033B0002E60846CC56C6560046D002C05D025689A
:1033C0001D402560436D806D58604A7000200022CA
:1033D0000A7070BD012070BD0422C263012000226A
:1033E0000A7070BD70B5014624314A78022A2BD18B
:1033F00003681A680E24A2431A601C6801229443D1
:103400001C60446C2568124B1D402560046C1C2513
:1034100025401446AC40E34D2E6826432E60846C54
:10342000C56C6560046D002C05D025681D402560C5
:10343000436D846D5C6000240C704A70816B0029C0
:1034400000D08847204670BD0421C163012070BDB3
:10345000FFFEFFFFF0B583B0002845D004462430BE
:103460000290266830680127B84330600025356037
:103470009748301814210191FDF7D6FD80001C21DA
:1034800001403A468A40C7490B6813430B608F4995
:1034900045504218803120646264A164FC203040B1
:1034A00008380199FDF7C0FD1F21014038468840CA
:1034B000E064884908606068401E032806D88200DE
:1034C00089180022CA67874083480760E56325653D
:1034D0006565A565E56225636563A563029805706A
:1034E0004570284603B0F0BD0125284603B0F0BD65
:1034F000C06B7047F0B585B0016C1C240C400423F0
:103500001946A140A74A121F15680A4603952A408A
:1035100056425641049005682A6817461F40784273
:103520007841304332D002950121022610463040C6
:1035300047424741A640039B1E420D46019400D0DE
:103540003946049F3C462434002931D008200240EB
:10355000564256410198C340180700D53546002D04
:1035600024D1029A10680E21884310600120014680
:10357000019A91408B4B1A680A431A60F863002144
:1035800021706070796B00290ED10FE028688006E9
:1035900002D4286898432860824A10680843106063
:1035A000049F396B002901D03846884705B0F0BD2B
:1035B000029A1068800605D410680A2188431060BA
:1035C0000120607000202070764908683043086050
:1035D000F96A0029E8D1E9E704000240F0B587B0B4
:1035E00000284AD004460146243102200691487042
:1035F00027683868344901403960344E304680309D
:10360000A0643348381814252946FDF70DFD8000C5
:103610008119206405916164FC20384008382946EE
:10362000FDF702FD1F22024001210B469340E36497
:10363000A0680490E5682646103645CE0196E669F6
:103640000296266A039628431043019A10430E46B9
:10365000029908430399084339680143049A1143C6
:103660003960B1031B488A420AD1002205990A60D9
:1036700062600360154613461BE0012007B0F0BDF1
:103680006168CFB2059A17600360491E00220329C2
:10369000154613460DD8791E8A0082180023D36779
:1036A00003250D403346AB400B490B607C32BC30E8
:1036B00005460020E06322656565A36506990870EC
:1036C0004E7007B0F0BDC0460F80FFFF00080240FB
:1036D000F8FFFDBF8408024044090240F0B582B003
:1036E00004462420205C012802D1022002B0F0BD53
:1036F000174625462435012028706A78012A2ED1E4
:10370000022068700020E06325682A68012601967F
:10371000B2432A60A26CE66C5660226D0092002AC9
:1037200002D0626DA66D5660226C1C261640019A6E
:10373000B2401C4E366816431A4A16606B60A36886
:10374000102B3A4600D00A46AA60102B00D039460A
:10375000E9602968226B002A07D00E220AE00021C6
:1037600029708021E16302B0F0BD042291432960F9
:103770002A680A211143296001990902626C1368C1
:10378000DB0302D513680B431360009B002B02D0B0
:103790001A680A431A602968019A1143296002B025
:1037A000F0BDC04604000240B0B5044600F07CF90C
:1037B0000546601C02D004484068041900F074F902
:1037C000401BA042FAD3B0BD0C000020F0B58AB077
:1037D0000390002970D00E46A948039A824201D076
:1037E000062000E005200B221207039B9B180A22EB
:1037F000D3410293042B00D3029003982030019010
:10380000002739463C463A46009626E08F40039D05
:103810002868384328601C203C46099F38400691A0
:1038200007998140D0088000019E33588B43069948
:103830003350A868A043A8606868089EB0436860D9
:10384000E868A043E860009E059C521C3046D040CA
:103850003F1D891C083400282ED0012090400546C9
:103860003540F2D0089009971820059420400F2485
:103870000794844003271646BE43824B9B1904934A
:103880001E6E06942640029B83409E42BED1049C3D
:1038900060347D4B1868A84318605868A843586086
:1038A000784B5868A84358601868A8431860206887
:1038B000069B98432060A9E70AB0F0BD80B503F0ED
:1038C000C1FF80BDB0B50446074D2868204203D033
:1038D0002C60204600F00AF86868204203D06C6033
:1038E0002046FFF7EBFFB0BD0C18024080B503F097
:1038F000A9FF80BDF0B58AB004900C68002C00D1FF
:10390000BCE00E465E480499814201D0062000E0EA
:1039100005200B210907049A52180A21CA41019275
:10392000042A00D30190049820300090002217460A
:1039300015461346079621460DE009980143524863
:1039400001605B1C31680846D84008323F1DAD1C41
:10395000002800D192E0012098400140F1D0059765
:1039600003920991324603273946A9400295CD4377
:1039700071680E463E40741E012C0695089110D8C1
:1039800004998C682C40D768029DAF4027438F6014
:10399000089AD406E40F9C404F68874327434F6042
:1039A00006E0032E029D03D13E46039A059F21E0C7
:1039B0000499C868069A1040079A9468AC4004437A
:1039C000CC60022E039A059F14D11C2038400F2191
:1039D0008140DC08A4000894009A16598E43079C85
:1039E00021698140314308981150039A6068032689
:1039F00008900640AE4004990868069C2040304379
:103A0000086008988003800F079E9AD01820104005
:103A10000F21814003241E46A6431A4FBC19266E6F
:103A20008E43019981403143079E21663968706851
:103A3000C40202D5099C214301E0099CA143114C19
:103A4000216061688402059F02D5099C214301E041
:103A5000099CA1430B4C61600B494968840302D562
:103A6000099C214301E0099CA143074C6160216846
:103A7000C00300D561E70998814360E70AB0F0BD53
:103A800000140050001802408018024000690840ED
:103A9000411E88417047002A02D018228150704789
:103AA0002822815070470000014800687047C046D6
:103AB00010070020B0B50246034640335C78022070
:103AC000202C17D11C78012C14D024205870106899
:103AD00002680124A2430260220305689543056041
:103AE00002680A43026001682143016000201870E7
:103AF00020215970B0BDB0B50246034640335C7812
:103B00000220202C17D11C78012C14D024205870AE
:103B1000106802680124A24302600F2212020568A5
:103B20009543090229430160016821430160002097
:103B3000187020215970B0BDB0B5002812D00546CC
:103B400040352421697001680A6801239A430A609C
:103B5000044600F04FFD0020606468702063287008
:103B6000A870B0BD0120B0BDF0B581B0002822D052
:103B7000054640356978002905D1002129700446A1
:103B800000F062FD20462421697001680B68012263
:103B900093430B600F231B0644689C430C618C68A5
:103BA0001C4B1C408C608468C668012E06D1D6036D
:103BB00034438C600CE0012001B0F0BD2127BF022E
:103BC0003C438C60022E03D1D4024E68264302E0AF
:103BD000D4024E68A6434E604C680F4E26434E609A
:103BE000CC681C40CC60036944691C4383691B0298
:103BF0002343CB60C369046A1C430C600B68134306
:103C00000B600021416420226A7001630846A9709C
:103C100001B0F0BDFF7FFFFF00800002F0B589B06A
:103C20000792064600270897054640356878022423
:103C3000202800D0EFE030688269120400D5EAE065
:103C40002A78012A00D1E6E024226A7001242C702F
:103C50007764DA4A1140714A8A180592704A8918C5
:103C60000491591C0295019406934DD0002B0397A3
:103C700000D08CE0039FF1680129059900D00499D8
:103C80004160FFF711FF05463068816920220A4034
:103C9000816910242140511800D1B1E08069C0062B
:103CA00000D496E000952025002230462946134690
:103CB00003F02CFC002800D09EE03068C461C56190
:103CC0000899491C08910899079A9142D3D320205A
:103CD000029A5070716C0143716401249AE000955E
:103CE000FB432025304629463A4603F00FFC0028C6
:103CF00000D081E03068C461C5610899491C089111
:103D00000899079A9142E2D2F1680129059900D0F9
:103D100004994160FFF7C8FE05463068826920219A
:103D20000A40836910242340D21817D182690A40BF
:103D300083692340D21811D182690A4083692340E4
:103D4000D2180BD182690A4083692340D21805D169
:103D500082690A4083692340D218E7D08069C0068F
:103D6000BDD437E000952025002230462946069B29
:103D700003F0CCFB0028039F3ED13068C461C561CD
:103D80000899491C08910899079A91429FD2F168B5
:103D90000129059900D004994160FFF785FE054689
:103DA00030688169202739408269102422408918AF
:103DB0000CD1FFF779FE401B0699884222D8306863
:103DC00081693940826922408918F2D08069C00631
:103DD000C8D4039F019C0095202500223046294627
:103DE0000792069B03F092FB0028029A13D13068D9
:103DF000C5615570079C0DE0019C204609B0F0BDDF
:103E0000FFF752FE2020029A5070716C01437164DA
:103E10000124039F1770204609B0F0BD0020000266
:103E200000280002F0B587B00446054640356E789C
:103E30000220202E00D0ABE02E78012E00D1A7E08A
:103E4000069103930492012005902870FFF72CFE41
:103E500006462068816909041AD42221697010215C
:103E6000A9700022626403996185049961620392DA
:103E70006263618D090ABA49BA4B26D0069A0A4094
:103E800047681F4017434F4A3A434260FF2228E0E9
:103E90000598C70302E081693942DED01921204626
:103EA000324603F077FA002877D1FFF7FDFD811B3A
:103EB00020681A29EFD381693942ECD0606C202147
:103EC000084360646970012073E0628D47681F4099
:103ED000069B0B40D1B20904C9183943384B0B4338
:103EE00043600C9F2285608D002849D006999C482C
:103EF00001400120029040060691081804900EE04F
:103F0000608D208521684A68994B1A40C0B2000430
:103F1000049B184310434860608D002830D0204631
:103F20003946324603F070FB002833D1606A2168BD
:103F3000496A0170608D401E6085606A401C606245
:103F4000208D401E2085618D0029E5D00004E3D13D
:103F500000968021002220463B4603F0D7FA002835
:103F600018D1608D000ACBD0FF20208520684168E1
:103F70007F4A1140069A11437E4A11434160CBE7C4
:103F800020463946324603F0A5FB0028059807D0A5
:103F900007B0F0BD029807B0F0BD059807B0F0BDBE
:103FA00020682021C1614268734B134043606970EF
:103FB000039800212970A97007B0F0BDFF0300002D
:103FC000002400020024FF01F0B587B00446054636
:103FD00040356E780220202E00D0AAE02E78012EE7
:103FE00000D1A6E006910393049201200590287069
:103FF000FFF75AFD06462068816909041AD4212179
:1040000069701021A9700022626403996185049986
:10401000616203926263618D090AE249E24B26D034
:10402000069A0A4047681F401743504A3A43426085
:10403000FF2228E00598C70302E081693942DED0FB
:1040400019212046324603F0A5F9002876D1FFF762
:104050002BFD811B20681A29EFD381693942ECD0EE
:10406000606C2021084360646970012072E0628DF9
:1040700047681F40069B0B40D1B20904C918394359
:10408000394B0B4343600C9F2285608D002848D03C
:104090000699C44801400120029040060691081884
:1040A00004900EE0608D208521684A68C14B1A405B
:1040B000C0B20004049B184310434860608D002880
:1040C0002FD020463946324603F047FB002832D134
:1040D0002068616A0A788262608D401E6085481C93
:1040E0006062208D401E2085618D0029E6D000048D
:1040F000E4D100968021002220463B4603F006FAD8
:10410000002818D1608D000ACCD0FF2020852068BF
:104110004168A84A1140069A1143A74A11434160D9
:10412000CCE720463946324603F0D4FA00280598F9
:1041300007D007B0F0BD029807B0F0BD059807B0F2
:10414000F0BD20682021C16142689C4B1340436050
:104150006970039800212970A97007B0F0BDC046AE
:10416000FF030000009800FC002000020020FF0177
:10417000009C00FC0000FF0100E800FEF0B589B0E3
:1041800004460646403675780220202D09D10E9F40
:10419000002F08D00F9D002D05D007953578012DF3
:1041A00006D109B0F0BD01204102616409B0F0BD43
:1041B0000397059302920691012008903070FFF753
:1041C00073FC02462068816909042FD41099049178
:1041D000222171704021B1700027676407996185C1
:1041E000039961626763FD49069B0B400599C9B25B
:1041F00009040693C9184368F94D2B40C9180123D7
:1042000008935B03C918416020460499154603F0E2
:10421000A4FA002846D1039707952068059901293B
:1042200026D10299C9B28162079D31E00898C50381
:1042300002E081692942C9D019212046174603F0BE
:10424000A9F8002811D1FFF72FFCC11B20681A29FB
:104250003A46EED381692942EBD0606C20210843B5
:104260006064717000203070B070089809B0F0BDC3
:104270000299090A816220460499079D2A4603F0A3
:104280006CFA0028039F0DD121680298C0B28862A1
:104290000095402100222046049B03F037F90028B6
:1042A000039F03D03770089809B0F0BD608D000AF5
:1042B00007D020684168CA4A1140021DFF203C4BCC
:1042C00009E0608D22685368C5490B40C1B20904FA
:1042D0001943121D354B069F194339431160208540
:1042E00001200890400638180590079A049D0FE0B9
:1042F000608D208521684A68BC4B1A40C0B200041A
:10430000059B184310434860079A608D002834D0FD
:1043100000920421002720463A462B4603F0F6F887
:104320000028A2D1606A2168496A0170608D401E30
:104330006085606A401C6062208D401E2085618D12
:104340000029079AE1D00004DFD1009280210022E9
:1043500020462B4603F0DAF8002886D1608D000A4B
:10436000C6D0FF20208521684A68A04802400698F0
:1043700002439D4802434A60C6E72046294603F0AF
:10438000A9F90028089800D00BE720682021C16116
:104390004268974B1340436071703770B77038466E
:1043A00009B0F0BDFF030000009800FC00240002EB
:1043B0000024FF01009C00FC0000FF0100E800FE5B
:1043C000F0B589B00446074640377D780220202D9D
:1043D00009D10E9E002E08D00F9D002D05D0079507
:1043E0003D78012D06D109B0F0BD01204102616484
:1043F00009B0F0BD03960493029206910120059046
:104400003870FFF751FB06462068816909042DD4F6
:104410000896109D212179704021B97000266664AC
:10442000079961850399616266636C49069A0A403F
:104430000499C9B20904069289184268684B13406E
:10444000C918684A89184160204607952946089A84
:1044500003F083F9002845D10396206804990129C7
:1044600025D10299C9B28162089D30E00598C50343
:1044700002E081692942CBD019212046324602F060
:1044800089FF002810D1FFF70FFB811B20681A2934
:10449000EFD381692942ECD0606C2021084360642D
:1044A000797000203870B870059809B0F0BD029995
:1044B000090A816220460799089D2A4603F04DF9B2
:1044C0000028039E0ED121680298C0B28862009530
:1044D0008021002520462A46079B03F017F8002874
:1044E000039E03D03E70059809B0F0BD03950120EE
:1044F0004606618D090A3C4A3C49059006D0206871
:104500000B4641681940051DFF2008E0608D2268B8
:1045100053680B40C1B209041943151D3246069B6E
:1045200011431943296020851E430496089A079E6B
:104530000FE0608D208521684A682C4B1A40C0B27C
:104540000004049B184310434860608D0028089ABB
:104550002FD02046314603F000F90028A4D120686E
:10456000616A0A788262608D401E6085481C6062C4
:10457000208D401E2085618D0029E6D00004E4D105
:1045800008980090802100222046334602F0BEFFAA
:10459000002889D1608D000ACBD0FF2020852168BA
:1045A0004A6812480240069802430F4802434A6094
:1045B000CBE72046314603F08DF80028059800D05F
:1045C00011E720682021C1614268094B1340436014
:1045D000797003983870B87009B0F0BDFF0300001F
:1045E000009800FC002000010000FF01009C00FC7E
:1045F00000E800FEB0B50068524988420ED04F492D
:10460000884207D04E49884217D10120C402810256
:104610000C4806E010240821094802E080244021CB
:104620000648724A136803401360484D2846FFF756
:10463000CDF828462146FFF7C9F8B0BDFFFFDFFFE0
:10464000FFFF7FFFFFFFBFFFB0B594B0044600251A
:1046500013951295119510950F9501A83821FBF728
:10466000CEFD2068354988423FD03549884223D065
:104670003449884260D12020019001A800F040FB1D
:10468000002801D0FDF75CFD2F4C20680221084373
:104690002060206808400090042013901295119526
:1046A00012201090C0200F90009828480FA9FFF703
:1046B00021F90120400538E0234C206802210843FD
:1046C00020602068084000900420139012951195F6
:1046D00012201090032080020F9000981B480FA911
:1046E000FFF708F9012080051FE04020019001A894
:1046F00000F006FB002801D0FDF722FD124C2068D7
:104700000221084320602068084000900420139094
:10471000129511951220109018200F9000980B48B8
:104720000FA9FFF7E7F80120C005E1680143E16048
:10473000E16801400091009814B0B0BD00880040CD
:1047400000580040005400404C100240000400504B
:104750001B48406802490A68101808607047C04644
:104760001007002010B50024204600F009F80028AA
:1047700001D0012010BD00F025F8204610BD00003A
:1047800070B50F4E71680124002916D005467D20B2
:10479000C000FCF749FC014658480068FCF744FC9F
:1047A00001F042FF032D08D8002806D10024E04381
:1047B0002946224600F038F83560204670BDC046D4
:1047C0000C00002082B001200107084A13680B4347
:1047D000136013680B400193019991680143916044
:1047E000916801400091009802B070475810024053
:1047F000002809D41F21084001218140034801609D
:10480000BFF34F8FBFF36F8F7047C04680E100E06A
:10481000002805D41F210840012181400148016082
:104820007047C04600E100E0002805D4032203469B
:1048300093430A4A9A1803E00C220240064BD2180E
:104840008007C00E8901C9B28140FF2383401068F0
:10485000984308431060704714ED00E000E400E066
:10486000BFF34F8F044805490160BFF34F8F00BF6E
:1048700000BF00BF00BFFAE70CED00E00400FA053E
:1048800070B503256902334C23680B400126720280
:1048900090422AD193422FD0206888431043206051
:1048A00016480168322048431549FCF7BDFB022138
:1048B000091AB0026269024212D0032910D062695B
:1048C00002420DD002290BD06269024208D00129B0
:1048D00006D06269024203D00A1D00291146E9D1BF
:1048E00061690142284607D070BDB002834203D0FF
:1048F00022688A4302432260002070BD1400002019
:1049000040420F0001218903124A13688B43136050
:10491000116802230B4305218B43136009490B687F
:10492000042213430B60012804D130BF0868904370
:104930000860704740BF20BF20BF086890430860F0
:104940007047C04610ED00E00320410201480068B6
:104950000840704700700040F0B581B004462B4F0E
:1049600038683A68396849063B460C3B1D682D0794
:1049700003D4274B1B681B0900E01B680325400478
:10498000490F1B061B0F0B2B00D30B232A40450E90
:10499000491CD9487A44127952009744010106050E
:1049A0009800D44A105800E01A48FCF73DFB4543F4
:1049B00038680026C003304606D538688002C00E2D
:1049C000411C2846FCF730FB20603868C0013046A7
:1049D00006D460603868C0000DD4A66001B0F0BD98
:1049E00038680001400F411C2846FCF71DFB606041
:1049F0003868C000F1D53868400F411C2846FCF7E4
:104A000013FB0646A66001B0F0BDC0460C10024084
:104A10009410024000127A0010B584B00021FF28E3
:104A200016DDAE4A90424BDCAE4A904200DD7BE0A0
:104A300001221302984200D1CAE092029042084635
:104A400000D034E1A8480068C00100D5FCE0EFE0E8
:104A5000421E1F2A58D808465200C0467A449288FF
:104A6000520097441F009F002401240124012401C7
:104A700024018300240124012401240124012401B0
:104A80002401A9002401240124012401240124017A
:104A900024012401240124012401240124012401EE
:104AA00024018D0090480268032111404900C0464E
:104AB0007944898849008F44DF00EB00E3008900D6
:104AC000874A904247DC01229303984200D193E049
:104AD000D20390423CD1844A90688005800F8300C5
:104AE00001A4E3589F46C046AF4C0008994C00080B
:104AF000E54B0008F94A00087D4800688003C117AB
:104B00007E48084004B010BD402800D1A2E08028B3
:104B10001ED1754A10680003800FC04678440079A2
:104B200040008744A95FADB90122D302984200D169
:104B30007AE0520390420BD16B4A10680001830F58
:104B40006A48C0467B441B795B009F4401AB7DB043
:104B5000084604B010BD01221304984200D18BE036
:104B600052049042084600D186E0A0E0F248016875
:104B70008905890F7944097949008F447D89812706
:104B8000ED4800688004800F800002A21258084699
:104B90009746C046794C0008914C0008814C0008AB
:104BA000AF4C0008E44801680907890F7944097986
:104BB00049008F44616D650BDF4801680905890F65
:104BC0007944097949008F4457635B01806864E048
:104BD000D94A10688002800F7844007940008744E9
:104BE0004B014F5BD0688007084660D5D06840070E
:104BF0005FD5FA2004B010BDCF4800688000800F58
:104C0000800002A2125808469746C046914C000800
:104C10001D4C0008814C0008AF4C000801A8FFF7AC
:104C20009BFE019804B010BDC348006880010BD4FE
:104C3000072000032E498C680440601E844100F068
:104C400025FAA04004B010BD01A8FFF785FE029828
:104C500004B010BDB84800688003800F800002A235
:104C6000125808469746C046794C0008914C0008F7
:104C7000814C0008AF4C000800F008FA04B010BDE9
:104C80001B4800684005C1171B48084004B010BD10
:104C900000F00EFA04B010BD9068022101408803B4
:104CA00004B010BD124B18688007084605D404B044
:104CB00010BD7D20000204B010BD1868000702D4AA
:104CC000D068000900E018680006000F0B2800D328
:104CD0000B2080000749085804B010BDFF3F0000BA
:104CE000FFFF0000FF07000088100240006CDC029C
:104CF0000010024050B400080024F40090D00300DB
:104D0000F0B587B0044601200702059005076078DA
:104D10000006894E04D400202168CA0749D06BE000
:104D2000303E30682840039006D130682843306018
:104D30003068284006900698029604957F4E3068A9
:104D400038433060FEF7B0FE05463068384206D181
:104D5000FEF7AAFE401B0228F7D9032021E003201A
:104D600001900102C6480068084012D0616B884279
:104D70000CD0C34B1868059909041A680A431A60D5
:104D80001A688A431A606E4908401860C00700D04C
:104D9000C2E0BB4A10686A490840616B0143116078
:104DA000002003990029644E049D1ED02168CA0783
:104DB00022D18A0728D4CA062ED40A0735D48A06F7
:104DC0003CD44A0643D40A064AD4394251D14A0453
:104DD000059F58D43A068B0468D44B05594B7AD4B6
:104DE000090500D589E007B0F0BD029A1168A94312
:104DF00011602168CA07DCD0326803239A436368D4
:104E0000134333608A07D6D532680C239A43A368CC
:104E100013433360CA06D0D503229202336893430A
:104E200022691A4332600A07C9D503221202336885
:104E30009343E2681A4332608A06C2D50322120302
:104E40003368934362691A4332604A06BBD5032232
:104E5000120433689343A2691A4332600A06B4D538
:104E60000322920433689343E2691A433260394261
:104E7000ADD00322120533689343226A1A4332608D
:104E80004A04059FA6D5226BAA4206D13B043546AB
:104E90007C3D2E681E432E60274E03231B0735687A
:104EA0009D43154335603A068B0496D5E36AFD06AB
:104EB000AB4204D135467C3D2E6816432E60032557
:104EC000AD061D4E3668AE431E431B4B1E601A4E88
:104ED0004B051C4B84D5656A954204D17C3E3768EE
:104EE00017433760059F144E36681E402E43124DFF
:104EF0002E60114E090500D475E7A16A7C06A14217
:104F000004D134467C3C25681543256032681A403C
:104F10000A43326007B0F0BDFEF7C6FD0546594EA4
:104F200057480068800700D533E7FEF7BDFD401BFA
:104F3000B042F5D9019834E7881002400070004073
:104F4000FFFCFFFFFFFFFFFEF0B583B004464B4DB3
:104F5000286807263040814208D92868B0430843B2
:104F6000286028683040884200D083E02068C2076B
:104F70004D4F51D0606804282BD8820001A39A5865
:104F80009746C046994F0008C74F0008AF4F00082A
:104F9000BB4F0008A54F00083A46083A126892072E
:104FA0001BD467E0364A5268920763D515E03A464B
:104FB000083A126892035DD50FE03A46083A126843
:104FC000920157D509E03A46083A1268520551D580
:104FD00003E02B4A126892074CD50291396801967A
:104FE000B14301433E463960FEF75EFD0546254F5D
:104FF0003068382101406068C000814207D0FEF768
:1050000053FD401BB842F3D9032003B0F0BD206824
:1050100002991A4D3746019E820706D50F221202C9
:105020003B689343A2681A433A602A68324091422F
:1050300007D22A68B2430A432A602A6832408A4269
:1050400018D1400705D5300339688143E06808432B
:10505000386000F02DF839680905090F0A4A515CDB
:105060001F220A40D0400F4908600020FFF788FB4C
:1050700003B0F0BD012003B0F0BDC04600200240E7
:10508000901002408813000038B4000805480068FA
:10509000054909684904490F044A515C1F220A4026
:1050A000D0407047140000200810024048B40008A7
:1050B00010B52C4C201F006838210140206805D015
:1050C000182926D103221040012822D120460C386D
:1050D00002680820024000D00420002A02D00B22DF
:1050E000D24300E08822A258C2400F201040002383
:1050F0000B281A4600D802469000204A1258002970
:10510000104602D1182912D010BD18461829FBD11B
:105110000DE0084608380022272805D8400812A3C9
:1051200018581829F0D102E010461829ECD121684E
:105130000320084021684906490F491C022803D072
:10514000032802D10F4A00E00D4A20684004400EB7
:105150005043FBF769FF2168490F491CFBF764FFC7
:1051600010BDC0460C1002400024F40000127A006A
:1051700000000000007D00000080000050B4000826
:105180000024F40000127A00F0B589B00746F54813
:105190008668382103910E40C168032005900140C4
:1051A00004913878C0065DD43878C00710D0102E2E
:1051B00006D0182E00D04BE10498032800D047E118
:1051C000E8480068800303D57868002800D1B4E07F
:1051D0003878800719D5082E06D0182E00D045E162
:1051E0000498022800D041E1F5480068400503D545
:1051F000F868002800D1A0E07F200006F04A51683E
:10520000814338690006084350603878000775D438
:105210003878400700D593E0BC6A0020002C00D10C
:105220007EE2E74A9168039B1940182900D184E087
:1052300001900123190610680491884310600393BC
:105240005E06FEF731FC0546022C00D0ADE1DC4CD9
:105250002068304200D101E2FEF726FC401B022804
:10526000F6D97EE2002E06D0182E00D08DE00498EC
:10527000012800D089E0D2490868800702D5F86982
:1052800000285AD07D6A0868000700D593E0CD4811
:1052900040680009F0242040854200D991E0C84AC6
:1052A00010680821014311601068A0432843106072
:1052B000FF20000251688143386A000208435060B1
:1052C000002E00D018E202970120BD4FB96DC90031
:1052D00000D5ADE104460007B96D0143B965B96D6C
:1052E000014008910898012000070190FFF72CFB6E
:1052F0000146B86D019A9043B8659DE17869B14C5B
:10530000002800D193E0B869411E8841800061689F
:1053100004229143081860606068012101436160C4
:10532000FEF7C2FB05466068800700D570E7FEF710
:10533000BBFB401B1128F6D913E2012009B0F0BDD8
:105340000120049002079E49886D1040019006D10B
:10535000886D10438865886D10400690069800920D
:10536000994C2068C00546D4049806022068304352
:105370002060FEF799FB0546206830423BD1FEF7DE
:1053800093FB401B0228F7D9EBE1F84C2068F96940
:10539000002900D1AEE0012108432060FEF784FB24
:1053A00005462068800700D5C9E0FEF77DFB401B5D
:1053B0000228F6D9D5E10868F0242040854200D8BB
:1053C0006DE702970120E94FB96DC900019066D4DD
:1053D0000007B96D0143B965B96D014007910798A0
:1053E000012000070090FFF7AFFA0146B86D009A60
:1053F0009043B86556E0B868C107E24EDC4C63D113
:105400002168049A9143216021680422914321601C
:10541000002863D1FEF748FB05462068800700D4CA
:105420004EE1FEF741FB401BB042F6D999E16068BE
:10543000012188436060FEF737FB054660688007FE
:1054400000D4E5E6FEF730FB401B1128F6D988E1D1
:105450000120840479680C43C44D2A6805231B0489
:105460009C4200D0C0E00A432A60C2E0BF4B1868EB
:1054700001218C02FA680902002A00D1C8E0084321
:105480001860FEF711FB0546B8480068204200D0BE
:10549000B2E6FEF709FB401B0228F5D961E1FFF7F0
:1054A00053FA0146019842029142029F08D1812D90
:1054B00004D3B02D06D8902D00D942E1002156E04A
:1054C0007F2D51D9022152E02168400703D50420E5
:1054D000014321602168049801432160FEF7E4FA4A
:1054E00005462068800716D4FEF7DEFA401BB0425E
:1054F000F7D936E1012188432060FEF7D5FA054649
:105500002068800700D44FE6FEF7CEFA401B022841
:10551000964CF5D925E120680297B968090655D45B
:105520008021884320600498C7022068384200D157
:10553000CAE0FEF7B9FA401BB042F6D911E1206883
:105540000821014321602068F0218843796A0143E2
:105550002160FF20000261688143386A000208432D
:10556000606021E600100240703D69426941814A55
:1055700013680725AB435B18136012682A408A4200
:1055800000D0CDE0794A106808210143116010680D
:10559000A043796A01431160FF20000251688143F2
:1055A000386A000208435060A6E0704C2068304220
:1055B00000D182E0FEF778FA401B0328F6D3D0E052
:1055C000001002409010024000700040802108430B
:1055D00020600498C7022068384275D1FEF764FA4B
:1055E000401BB042F7D9BCE09A432A60002900D1A1
:1055F00098E04404FEF758FA05465C4800682042EB
:1056000000D0E5E5FEF750FA401B6428F5D9A8E084
:1056100088431860FEF748FA05465448006820425F
:1056200000D1F2E5FEF740FA401B0228F5D998E0D8
:105630000446FFF789F90146204662029142029F23
:1056400008D1812D04D3B02D06D8902D00D98BE040
:10565000002147E07F2D42D9022143E0E0684A491A
:105660000140F86A3D6B7B6BBA6B0292FA6B009259
:1056700022463C6C08432843190201430098014329
:105680002143059D02980143D16003980007D1682A
:105690000143D1601068049908431060FEF704FAD2
:1056A000044632480068304207D1FEF7FDF9001B7E
:1056B0000228F6D9284609B0F0BD019809B0F0BD1E
:1056C0000297206800063ED401980028029F00D06F
:1056D000A2E52649886D009A904388659CE5703D57
:1056E00069426941234A13680724A3435B18136086
:1056F000126822408A4213D1FFF7DAFC1B498968FD
:105700000905090F1C4A515C1F220A40D0401B4961
:1057100008601B480068FFF733F8002800D143E514
:1057200009B0F0BD4404FEF7BFF905460F48006814
:10573000204200D14CE5FEF7B7F9401B6428F5D9AB
:105740000FE0012113E7206880218843206004983E
:10575000C70220683842B7D0FEF7A6F9401BB04216
:10576000F7D9059809B0F0BD0121BBE70010024050
:10577000901002400020024038B4000814000020BD
:105780000C000020881300008C80C1112C21415C8A
:10579000012901D1022070472C30022141701121D2
:1057A0008902364A13688B4313600021017001227D
:1057B000427008467047C046F0B585B004462C20BC
:1057C000205C012802D1022005B0F0BD02910392B5
:1057D00001932C3402206070012004902070274F28
:1057E00038687D21CE003146183108420DD0FEF7D1
:1057F0005BF9054638460C380068400705D5FEF7CA
:1058000053F9401BB042F5D915E00498800239687D
:105810008143396004207864FEF746F9054638462E
:105820000C380068400709D4FEF73EF9401BB0422F
:10583000F5D9FF20F860032318461AE001990A04FD
:1058400002980243381F02603A6807208243039897
:1058500002433A600A48002900D0001D049B0168F9
:105860001A070A4302601120800239680143396037
:10587000002000212170637005B0F0BD18280040A1
:10588000801802407047000010B5044606480168C1
:10589000490704D5042181602046FFF7F3FF2D203E
:1058A0000121215410BDC04654280040F0B581B0FC
:1058B00000285CD0044605462C356878002804D1C1
:1058C00000202870204600F06BF8022000956870D8
:1058D000A14FCA20B8615320B8613868400611D47E
:1058E00038688021014339607D20C600FEF7DCF86E
:1058F00005463868400605D4FEF7D6F8401BB0428E
:10590000F7D931E0F86825490140F96060682169FC
:105910000143A0690843F9680143F960E068A168A0
:105920000904014379601F20000239688143606ADD
:10593000A26A084310433860386880218843386081
:10594000F868800616D438682021884338607D20A6
:10595000C600FEF7A9F80546386880060AD4FEF7A7
:10596000A3F8401BB042F7D9012004210FE0012029
:1059700001B0F0BD07204007F9688143E069226A61
:105980000A43024360691043F86000200121FF22AE
:10599000BA61009A517001B0F0BDC046BFFF8FFBE5
:1059A000B0B590B0044602A8001D3021FAF727FCDC
:1059B00020681449884201D010B0B0BD01246002B3
:1059C0000F90E503029502A8FFF79AF9002801D08D
:1059D000FCF7B6FB0C48816B29438163A102026886
:1059E0000A430260006808400190019802240021E7
:1059F00020460A46FEF718FF2046FEF709FF10B0C2
:105A0000B0BDC0460028004058100240F0B585B037
:105A10002C23C35C012B02D1022005B0F0BD2C3039
:105A20000223437001230370002A019307D0CA7830
:105A300013044A781202D7188A7803923DE04D7811
:105A4000EA0603D5EF2215400A354D70CA780026C4
:105A50000A2A0FD30A3AD3B2CD245C43E30A0A24BC
:105A60005C43121B1B0110331343DAB20A2D06D21A
:105A700033460EE033461343DAB20A2DF8D30A3D1B
:105A8000EBB2CD245C43E30A0A245C432D1B1B01CB
:105A9000103312042B43DBB21F028D780A2D09D379
:105AA0000A3DEBB2CD245C43E30A0A245C432D1B80
:105AB0001E01103617432E4303960490874ECA20CA
:105AC000B0615320B061087802903068400611D46C
:105AD00030688021014331607D20C400FDF7E4FF80
