:020000040800F2
:10000000A8090020D5000008F96B00087B5A0008F9
:1000100000000000000000000000000000000000E0
:1000200000000000000000000000000065760008ED
:100030000000000000000000FB6B0008677600086D
:10004000E7000008E7000008C1700008E7000008AA
:10005000E70000081913000823130008E700000850
:1000600000000000F912000809130008E70000086A
:10007000E7000008E7000008E7000008E7000008C4
:10008000E7000008E7000008E7000008E7000008B4
:10009000E7000008E700000800000000E700000893
:1000A000E7000008E7000008E70000084D860008A8
:1000B000E70000086D860008E7000008E700000878
:1000C0000348854600F044FD004800471D8C0008A9
:1000D000A80900200448804704480047FEE7FEE7DF
:1000E000FEE7FEE7FEE7FEE7F9760008C10000083C
:1000F000F0B51FB40646002082B0054640240191A9
:1001000000901BE0019922460F46304600F0CFFBDD
:10011000049A059B801A994110D31046194622462D
:1001200000F0B5FB361A8F410197224601200021CD
:10013000009F00F0ACFB38184D4100902046641E33
:100140000028DFDC019B00982946324607B0F0BD4D
:1001500003460B439B0703D009E008C9121F08C0E0
:10016000042AFAD203E00B780370401C491C521E8B
:10017000F9D27047D2B201E00270401C491EFBD296
:1001800070470022F6E710B513460A4604461946A2
:10019000FFF7F0FF204610BD30B5044600200346AF
:1001A00000E05B1C934203D2E05CCD5C401BF8D0C6
:1001B00030BD0000F7B5009C0F4600262578641C72
:1001C000002D05D000F098FB0068405DC007F5D118
:1001D0002B2D02D02D2D18D0641E39462046029AB0
:1001E00000F08EFB002F04D03968A14201D10099A4
:1001F00039607105022400290BDA4042002803DD32
:1002000008F086FF0460A007FEBD012080020643BF
:10021000E3E70028F8DA08F07BFF04600048FEBD41
:10022000FFFFFF7F70B5064608F072FF04680546C1
:100230000A2200213046FFF7BDFF2C6070BDF8B5E3
:1002400002464A40D40F42004B0052085B089A42D3
:1002500002D20246084611464A0023D0C30D4A0086
:10026000DDB2120EAD1A202D35DA49020126490AF7
:10027000F6058A19002C00D0524220214F1B11464E
:10028000B9402A411018C20D9A4221D0002C17D033
:10029000012D08DCDA05801AD20F8019D207DBB2F3
:1002A00000F089FBF8BDDA05801A012340001B0627
:1002B000C01880185A428018CA0F1043490007E03E
:1002C0004908C2071143DA05801A801940088018CE
:1002D00000F069FBF8BD61000122511A001BF7E72D
:1002E0000122D2075140AAE70122D2075040A6E7D7
:1002F000024670B54A40D30FDB0740002DD04A00BC
:100300002AD0010E140E000212020919400A520AE4
:100310008418E50104465443000A120A2E0450438F
:10032000A4194219200CC543AA18120C0125AD03CB
:10033000521C521912047F39240400D0521C10435D
:1003400001D44000491EC2B20C06C0092018401C4E
:100350004008802A02D003E0002070BD4008400021
:10036000002900DA0020184370BD70B502464A40EB
:10037000D50F40004A00ED0740085208002814D06D
:10038000002A12D0C40DD30D41020120C005520233
:10039000490A520AE41A091812187D34914201D30D
:1003A000641C00E04900002C01DA002070BD00232D
:1003B000914201D3891A0343400849000028F7D12C
:1003C00000290AD0914202D10121C90705E09142DA
:1003D00001D2012101E00121C943E005C018401903
:1003E00000F0E1FA70BD0000F0B50746084658403D
:1003F00087B0C00F049048000E46590040084908D5
:10040000BC1A884105D2384631461E4617460B466F
:1004100002465800400810434CD0300D0390400570
:100420005900400D490D0590401A0290402872DA9B
:1004300018030121000B090508430190049800925C
:10044000002805D001995242002088410092019075
:10045000029840210A1A0199009800F018FA0546FE
:100460000C466B4607CB00F033FAC0197141039A72
:100470000E0D0023D71756401A467A40164344D033
:10048000049A002A2DD0029A012A039A15DC12053B
:10049000C01A914101263605001C7141D20F059EFC
:1004A000D2070093019202962A46234600F0C9FA29
:1004B00007B0F0BD38463146FAE71605224A0F4626
:1004C000B218C01AB74101210905001C4F4100189C
:1004D0007F41114618187941E20F10436D196441AC
:1004E00013E0E2076D0815436408C2071443039A3A
:1004F00001261205C01A91413605001C7141CE0734
:10050000400830434908C01851412A46234600F0AC
:100510008BFACDE7FFE7049801224000C117121AB9
:1005200000238B4104983146C417381AA141EEE7E5
:1005300030B40124E407634030BC55E730B40124F3
:10054000E407614030BC4FE70000E0FFF0B51FB4A6
:1005500088B00B990998002448400999C00F4900B8
:1005600049080991C0070B990090490049080B916F
:1005700009990898A64608431CD00B990A98084385
:1005800018D0099801244000420D4800410D0998F7
:1005900024050003000B204309900B980003000B77
:1005A00020430B9050181C4940180022019014461B
:1005B000104605E0002001460DB0F0BD032801DA29
:1005C000034600E003239C46C11A0AAE0AE05F001E
:1005D00008ADED5B4F00F75B7D430027AA187C4117
:1005E000491C5B1E6145F2DD410004AB5A522104F7
:1005F000120C0A43240C401C0828DFDB01980290EF
:100600000099704601910090059B049A07990698FD
:1006100000F017FAD0E700000DFCFFFFF0B50C4624
:100620005C4085B0E40FE40703944C0000266408A6
:1006300059009446490802460296224321D0624658
:100640000A431ED06200570D4A000E032303550DC6
:10065000012402462C492405781B1B0B360B40183D
:1006600023432643614600901C46501AB44103D3ED
:100670000098401C009002E0921800985B4100280E
:1006800003DA0020014605B0F0BD00200121090574
:100690000746864611E064461D46141BB54106D345
:1006A0006546521BB341744607430C43A646CD072B
:1006B00040084908284392185B4105460D43EAD19A
:1006C0001046184313D06046194650407140084305
:1006D00006D06046101AB34106D20122002306E07C
:1006E00000220123DB0702E00122D24353100098CD
:1006F00074460105381C6141029C039D0019694143
:1007000000F092F9BFE70000FD0300000122D207CC
:10071000002800DB101A002900DB511A814201D8A1
:1007200001207047002070470122D207002800DB1B
:10073000101A002900DB511A814201D301207047B1
:1007400000207047C217C10F504010B54018CA07AB
:100750009623002100F02FF910BD10B5002296233A
:10076000114600F028F910BD0EB5C217C10F504058
:10077000CA0740180021054B0293019200910A46D6
:100780000B4600F05EF903B000BD0000330400002A
:100790000EB505490291002100910A460B460191D0
:1007A00000F04FF903B000BD33040000C20F410058
:1007B00040020123400ADB05D207090EC0187F2939
:1007C00001DA00207047962903DC9623591AC840A5
:1007D00001E096398840002AF4D04042704700007A
:1007E00070B5CD0F4A0009030123090B1B051943FE
:1007F0000B4BED070024520D9A4201DA002070BD28
:10080000074B34339A4203DC9A1A00F050F802E0A6
:100810000449511888402C43F1D0404270BD00007B
:10082000FF030000CDFBFFFFC20FD20740004008CE
:100830000BD0C10D0723DB01C91840020905400A8E
:100840001143C2084007114370470020014670471A
:1008500070B50446002903D000202022012310E0B7
:10086000002801D00020C043C046C0460DE0254608
:10087000D5408D4205D30D469540641B1D469540DD
:1008800040191546521E002DF1DC214670BD10B5F1
:10089000202A04DB0146203A9140002010BD9140FF
:1008A00020239C1A0346E3401943904010BD10B525
:1008B000202A04DB0846203AD040002110BD0B4618
:1008C000D340D0402024A21A91400843194610BDBD
:1008D00010B5202A06DBCB170846203A1041C11775
:1008E0000B4306E00B461341D0402024A21A91404E
:1008F0000843194610BD000000487047989A000848
:10090000F7B582B0029C00272078641C1546019739
:10091000302802D0002D15D015E020780127641C66
:10092000782804D0582802D0002D09D00BE0002DE3
:1009300001D0102D07D1002710252078641C02E07B
:10094000082500E00A250026009610E000990127FE
:1009500069430818020C294680B2714300908E1832
:100960003804864201D3012001902078641C294676
:1009700000F006F90028E9DA0398002805D0002FD6
:1009800001D0641E00E0029C04600198002806D09B
:1009900008F0BEFB02210160C81E05B0F0BD009941
:1009A00030040843F9E7002904DA401C490001D16A
:1009B00040084000704770B40024050C05D1102495
:1009C000000402D1002921D01124050E01D100021A
:1009D0000834050F01D10001241D850F01D18000CD
:1009E000A41C002801DB4000641C002908D020253D
:1009F0002E1B0D46F540A14000D00121294308439C
:100A000001061B1B000ADB1D02D5002070BC7047CD
:100A1000DB05181880180029F8DA401C4900F5D1C8
:100A200070BC40084000704710B5002B08DA002465
:100A3000401C614192185B411A4301D140084000BB
:100A400010BDF0B51FB482B005460C0003D00846B7
:100A500008F046FB02E008F043FB2030024600901D
:100A600021462846FFF713FF049B059A04460F46CC
:100A700018431143084314D0184610431BD0009864
:100A800040210A1A18460599FFF711FF05460E4640
:100A9000009A05990498FFF7FAFE084305D0012053
:100AA00004E02046394607B0F0BD0020C1170543D9
:100AB0000E432C43374300990E986305401A79057D
:100AC000E40A00220C43FD0A0A3002D50020014648
:100AD000E9E70105101969410C9C0D9D0019694158
:100AE000FFF7A2FFDFE700004A0009030123090B1B
:100AF0001B0519430A4B10B5520D9A4202DA002029
:100B0000014610BD064B34339A4203DC9A1AFFF7B4
:100B1000CEFE10BD034BD218FFF7B9FE10BD00008A
:100B2000FF030000CDFBFFFF10B5002904DB01240B
:100B3000E40740428C412146002B04DB1C46012384
:100B4000DB075242A341994200D1904210BD000000
:100B50001CB5094800900948019005460126009CF3
:100B600005E0E36807CC33430C3C98471034AC42B3
:100B7000F7D3FFF7A9FA000068A0000888A00008D2
:100B80003A2800D23038202302469A43412A01D322
:100B900010463738884201D30020C0437047000018
:100BA00070B505460068816882680024D20726D0A7
:100BB0000222114023D1816805220A40012A16D160
:100BC0008168434A0A40911C81600321016001F061
:100BD00081FE064628688068C00710D001F07AFEC2
:100BE000811B28680329F6D38168C907F3D0A86D53
:100BF00010210143A965E86D01242043E8652046E2
:100C000070BDC046F0B581B0054600240094006870
:100C10008168C9071CD181682D4A2F3211420AD040
:100C2000A86D10210143A965E86D01242043E86502
:100C3000204601B0F0BD8168254A114001273943A3
:100C4000816024480068000205D4687E012825D10F
:100C5000204601B0F0BD204800682049FFF7F8FDAC
:100C6000401C009000980028EFD00098401E009093
:100C700000980028E9D00098401E009000980028B5
:100C8000E3D00098401E009000980028DDD0009826
:100C9000401E009000980028E7D1D6E701F01AFE28
:100CA000064628680168C907D2D18168C90704D1FE
:100CB0008168074A11403943816001F00BFE811BB6
:100CC00028680329EED30168C907EBD1A8E7C0461D
:100CD000E8FFFF7F0827014010000020400D0300BF
:100CE00070B586B0044605AA01251570009519480F
:100CF000B8212B4601F078FF0026002802D03046AC
:100D000006B070BD05AA1020107000951148B821DA
:100D10002B4601F069FF0028F1D1002603960296C8
:100D200000950C48B92102AA022301F08DFE00288B
:100D3000E5D102A8008840BAFFF72AFD064A074B12
:100D4000FFF76CFCFFF74CFD20802E46304606B0C6
:100D500070BDC04698020020333333333333F33F42
:100D600010B504460D49FFF7DFFC002812D10C49ED
:100D70002046FFF7CBFC00280ED10A492046FFF79A
:100D80005EFA0949FFF7F1FA0849FFF7B1FAFFF7F0
:100D90000DFD10BD642010BD002010BD66668640AC
:100DA00033336340333363C06466263F0000C84278
:100DB000F0B587B0574802210026324601F081FD88
:100DC000642001F007FC0A27484D02960DE02846F2
:100DD00000F0D2FE0446284601F0F8F8012001F0A8
:100DE000F9FBA0B286197F1E1DD007200390069044
:100DF000029C05943C48049004A9284600F0EEFCAF
:100E00000028EBD1012001F0E5FB284601F0AEF807
:100E10000028029CE2D16421284601F029F800282C
:100E2000D5D00024D7E70A2530462946FFF710FD24
:100E3000044600040FD02F480088FFF78EFC2E498F
:100E4000FFF756FA0646A0B2FFF787FC0146304688
:100E5000FFF78BFA00E0264801900027234C029709
:100E60000DE0204600F088FE0646204601F0AEF870
:100E7000012001F0AFFBB0B2C7196D1E1CD0039862
:100E80000690029E05961D48049004A9204600F095
:100E9000A5FC0028ECD1012001F09CFB204601F0CC
:100EA00065F80028029EE3D16421204600F0E0FFAF
:100EB0000028D6D00026D8E702210122154801F0EB
:100EC00000FD0A213846FFF7C3FC80B2FFF745FC5E
:100ED0000B49FFF74AFA01460198FFF709FA014664
:100EE000FFF7ADF907B0F0BD001000B060010020C1
:100EF00033335340A46EFF1F000040400001002028
:100F000000F07F4580B503480221012201F0D9FCA1
:100F100080BDC04600140050F0B591B0404E30780E
:100F2000012874D13F4F3888002837D03A886C4662
:100F30003D4D20462946FFF70BF938880021215402
:100F4000317040212846FFF71CF938A0214608F0EF
:100F5000B7F83CA108222046FFF71EF9002824D04C
:100F600068463BA10622FFF717F900282CD06846F7
:100F700039A10722FFF710F9002834D0684638A1BC
:100F80000822FFF709F9002833D0684637A10A2262
:100F9000FFF702F900283CD037A034E00020307081
:100FA00021484021FFF7EDF82FE068460830FFF7B1
:100FB00039F9014689388008DC2812D83548416063
:100FC000454808F07DF820E06846801D0021102289
:100FD000FFF7F0F82F49088181B23D4808F070F81A
:100FE00013E03C480FE000F0C3F800280AD037486F
:100FF00009E0344808F0FEFC642001F0EBFA02F04E
:1010000003F802E0304808F0F5FC07F025FB11B0CA
:10101000F0BD2048426801891FA008F051F8F4E7AC
:1010200074000020760000201D01002052656365D9
:101030006976656420636F6D6D616E643A20257317
:101040000D0A000041542B465245513D000000005E
:1010500041542B49443D000041542B534156450017
:1010600041542B52455345540000000041542B433A
:101070004F4E4649473F00004552524F523A205585
:101080006E6B6E6F776E20636F6D6D616E642E0D8B
:10109000000000001001002043757272656E74201C
:1010A000436F6E666967202D3E2049443A203078B0
:1010B00025582C20467265713A202564204D487AC7
:1010C0000D0A00000EA00008DF9F0008BC9F00086A
:1010D0007B9F00082AA00008989F000870B584B084
:1010E00001A800240C22214607F09EFB48480199E4
:1010F000814234D1404A13689D6801210D439D60AF
:101100005A251D70156801AB5E782E7015689E78A3
:101110002E701568DE782E701568029E2E70156888
:101120005E792E7015689E792E701568DE792E70A6
:101130001568039E2E7015685E7A2E705B891268A2
:10114000126892B293420AD13048039A029B019CE2
:101150000460436082600C46204604B070BD2B4999
:101160001122FF23B23309C10A60204604B070BDCA
:10117000F0B583B0254C264820601F4801688A6876
:10118000012313438B605A220A70016862780A7047
:101190000168A2780A700168E2780A700168227911
:1011A0000A70016862790A700168A2790A700168A0
:1011B000E2790A700168227A0A700168627A0A701C
:1011C0000068006860810025284607F057FA0C2661
:1011D00020462946324607F051FB6F4638462946DD
:1011E000324607F021FB204639463246FEF7D4FF4F
:1011F0004142484103B0F0BDC40100200348112121
:10120000034AFF23B2330CC0016070471001002075
:101210005A5A5A5A80B516A008F0ECFB0520000770
:101220000122110201F04DFB0A2001F0D3F907F071
:101230007FFA002801D018A010E0254808F0DAFB5A
:10124000FFF74CFF002808D0234808F0D3FB07F035
:1012500003FA22A008F0CEFB80BD1E4808F0CAFBAE
:10126000FFF7CCFF07F0F8F91CA008F0C3FB80BD26
:10127000496E697469616C697A696E6720666F721C
:1012800020436F6E66696775726174696F6E204D79
:101290006F64652E2E2E0D0057323551585820465A
:1012A0006C61736820696E6974204552524F5221F7
:1012B000205573696E672064656661756C74206380
:1012C0006F6E66696775726174696F6E2E0D0000CE
:1012D000B49C0008759E0008469E0008436F6E6629
:1012E000696775726174696F6E204D6F6465205215
:1012F000656164792E0D000080B5024801F010F898
:1013000080BDC0467800002080B5024801F008F892
:1013100080BDC046E801002080B5012001F0E8F959
:1013200080BD80B5042001F0E3F980BD72B6FEE710
:10133000F0B589B00446002708975420205C0128A6
:1013400003D10225284609B0F0BD264654360125B2
:1013500035702046FFF724FC21688A68A36DD20708
:101360003FD10390812252009343981CA065C86826
:10137000CA68DE4B1340CB608A68DD4B1A40D21836
:1013800018328A60DB4A024002920846B430069066
:10139000D94A8B68002B2CD5089B5B1C0893089BB3
:1013A000934200D997E18B68002B22D5089B5B1CE8
:1013B0000893089B934200D98DE18B68002B18D5C8
:1013C000089B5B1C0893089B934200D983E18B68C0
:1013D000002B0ED5089B5B1C0893089B9342D8D921
:1013E00079E110210B433770A3650546284609B003
:1013F000F0BD0698036888680596F74E30403018AF
:10140000059E183088607F2004900340886800287B
:1014100024D50898401C08900898904200D95AE1B9
:10142000886800281AD50898401C089008989042AF
:1014300000D950E18868002810D50898401C089011
:101440000898904200D946E18868002806D5089897
:10145000401C089008989042D8D93CE10698006852
:1014600001978F68DC4E3740F719059E18378F605B
:10147000019F0095049D2840009DC318886800289E
:1014800024D50898401C08900898904200D922E181
:10149000886800281AD50898401C0890089890423F
:1014A00000D918E18868002810D50898401C0890D9
:1014B0000898904200D90EE18868002806D508985F
:1014C000401C089008989042D8D904E1069800681A
:1014D0008F68C14E3740F719059E18378F60019FFE
:1014E000049D2840009DC3188868002824D50898CA
:1014F000401C08900898904200D9ECE088680028C9
:101500001AD50898401C08900898904200D9E2E04B
:101510008868002810D50898401C089008989042C8
:1015200000D9D8E08868002806D50898401C0890A3
:1015300008989042D8D9CEE0069800688F68A64EE9
:101540003740F719059E18378F60019F049D28408A
:10155000009DC3188868002824D50898401C08906E
:101560000898904200D9B6E0886800281AD50898F3
:10157000401C08900898904200D9ACE08868002888
:1015800010D50898401C08900898904200D9A2E015
:101590008868002806D50898401C08900898904252
:1015A000D8D998E0069800688F688B4E3740F719B5
:1015B000059E18378F60019F049D2840009DC31829
:1015C0008868002822D50898401C08900898904206
:1015D00000D980E08868002818D50898401C089039
:1015E0000898904277D8886800280FD50898401C42
:1015F0000890089890426ED88868002806D5089808
:10160000401C089008989042DAD964E00698006877
:101610008F68714E3740F719059E18378F60019F0C
:10162000049D2840009DC3188868002821D508988B
:10163000401C0890089890424DD88868002818D51A
:101640000898401C08900898904244D88868002860
:101650000FD50898401C0890089890423BD888689D
:10166000002806D50898401C089008989042DBD9BD
:1016700031E0069800688F68574E3740F719059E8D
:1016800018378F60019F049D2840009DC31888680B
:10169000002833D50898401C0890089890421AD822
:1016A000886800282AD50898401C0890089890421D
:1016B00011D88868002821D50898401C08900898FF
:1016C000904208D88868002818D50898401C0890CF
:1016D00008989042DBD93770A06D10210143022099
:1016E0008143A165284609B0F0BDC046FC7FFFFFDD
:1016F000E8FFFF7F03800000FFB702000698006844
:101700008A68354D2A4001252A438A60049A104090
:10171000C018C00800900869800F29D10F208004EC
:10172000C04B1B6803409B0C072B21D3D81E012301
:10173000834007930798400807900798002817D020
:101740000798401E07900798002811D00798401E60
:101750000790079800280BD00798401E079007981D
:10176000002805D00798401E079007980028E7D169
:10177000069B1868049A9043009A10431860886882
:10178000F74A1040022204921043886001F0A2F848
:10179000069020688168C90713D001F09BF806996C
:1017A000411A20680329F5D38168C907F2D0A06DDA
:1017B00010210143A165E06D2843E065284609B08A
:1017C000F0BDC168029A1143C160A16D01230B43B2
:1017D00004988343039806E6E8FFFF7FF0B587B0DF
:1017E000002406945422825C012A03D1022210466E
:1017F00007B0F0BD0546543501222A7003689E6883
:10180000760714D406694A68022A18D104200643D0
:10181000794886426AD17748C0430E68F143014354
:10182000986A08409862002E224663D4D0E0816D09
:1018300020230B4383652C70104607B0F0BD0427AE
:101840003E436D4FBE4263D10F683846694A10402F
:101850009A6A02439A6238025A698243896801404F
:101860006F48084010435861002F224600D4AFE073
:10187000C048066807208305314619406A488742F8
:101880005C4A6BD1501C304068D1BA4E30689843E6
:1018900001435018401C3060664800686649FEF7F6
:1018A000D7FF0C2141430C310691069800282246AF
:1018B00000D18DE00698401E06900698002800D1C1
:1018C00093E00698401E06900698002800D18CE010
:1018D0000698401E06900698002800D185E00698DC
:1018E000401E069006980028E4D17EE00E68002E87
:1018F00022466DD59F4801684C4A96426CD04C4AAE
:10190000964253D0484A9642224661D1052264E06D
:101910000E680496374F3E4001961F2616400F274B
:10192000B7400297076E0597049F002F03960AD0D1
:10193000002F08D07E423E403746304E7E43F70EA1
:101940002FA6F65D00E020260096029F059EBE436E
:101950000596019E002E0ED0009E0FE00120334A16
:10196000974226D10206914223D2824E3068984394
:10197000014311432AE0049E7600F60E039FBE4009
:101980003746059E374307669208C06990420BD9D7
:101990000298C0439A6A0240049FB800000F039E59
:1019A000B0401043986256E7049F54E70322D205E3
:1019B00014E01F4A974222460AD18005064022467B
:1019C00006D16C4E32689A431143014331600CE0FA
:1019D0002C70104607B0F0BD03229205114007227B
:1019E0009205036893435918016022462C701046F3
:1019F00007B0F0BDFFFF7F000400008031B57C0719
:101A000000011C021D0E18031E16140F19110408E4
:101A10001F1B0D17151310071A0C12060B050A09C8
:101A200000FFFF7F08270140000800AC002000B441
:101A3000001000B010000020400D030070B5002819
:101A40006AD00446806D02263043A0652068816814
:101A5000490763D481688268D20726D0314024D1F7
:101A6000816805220A40012A16D181683C4A0A4051
:101A7000911C81600321016000F02CFF0546206865
:101A80008168C90711D000F025FF411B2068032998
:101A9000F6D38168C907F3D0A16D10220A43A2656D
:101AA000E16D01252943E16502E00121A1650025E1
:101AB0008168C04A0A40826041682A4A0A404260FE
:101AC00029490160C168294A0A40C2604169072268
:101AD00091434161816A00268662016A244A11406D
:101AE0000162416A11404162C16A1140C162032131
:101AF000890702698A4302617F208004B2490A682B
:101B000082430A60204600F061F954202654E665BD
:101B10002666A665284670BD012070BD81688907CC
:101B200004D481680E4A0A401032826000F0D2FE6E
:101B300005462068816849078CD500F0CBFE411B23
:101B400020680329F6D381684907F3D5A16D1022D7
:101B50000A43A265E16D01252943E165ACE7C04672
:101B6000E8FFFF7F60F4FFFF9F0B000000021E8371
:101B700000F000F0082701400068006C704700008A
:101B8000F0B589B0044600200890002C77D007906B
:101B9000A06D002807D125465435204600F02AF9CB
:101BA00000202870E06501273D072668B068C00066
:101BB00027D4B0687F4901402943B1607E4800685E
:101BC0007E49FEF745FE4000801C089008980028DA
:101BD00017D00898401E08900898002811D008983F
:101BE000401E0890089800280BD00898401E0890C6
:101BF0000898002805D00898401E089008980028EA
:101C0000E7D1B068284208D1A06D10210143A16539
:101C1000E06D012107910843E065B06804210140AF
:101C2000A26D102002405118A16D2BD106900F20FB
:101C3000C7433A46F33A1140891CA165B168C90708
:101C40007DD10390049727462037216B4A1E91418E
:101C50000D03A168227E92030A43617EC9031143EA
:101C6000A27E50030843E36803432B430120C507CA
:101C7000216900290590029509DAA94308E00120AD
:101C800009B0F0BD0143A165384609B0F0BD41057A
:101C90000B43387B45001D433878012809D1002AC1
:101CA00011D0A06D20210143A165E06D0599084385
:101CB000E065626A002A0CD0072080010240A16A18
:101CC0001143294306E0059800040543626A002A8F
:101CD000F2D12946F0683A4A02400A43F2600320F2
:101CE000820763681D461540E16C387F01280ED1DC
:101CF000206C0090676CA06C0190009807430198DD
:101D000007432F430F43059807433D4600E00D432B
:101D1000049F30692B490140294331610298834275
:101D200003990CD093420AD005988007834206D0CD
:101D30008804034024490A688243D0180860706907
:101D400007229043656B2843706170697021884356
:101D5000A16B090101437161216901235805814289
:101D600003D000290BD1B06A07E0B06AE0698000B7
:101D70001C301C2101408F40206E3843B0627069D6
:101D80001040A8420AD10020E065A06D0121014366
:101D900002208143A165079809B0F0BDA06D0699A6
:101DA000084302218843A065E06D1843E0651846AA
:101DB00009B0F0BDE8FFFF6F10000020400D0300E8
:101DC0000102DEFF02FCFF1F0827014080B500680A
:101DD0002549884200D080BD0120000504490A68D9
:101DE00082430A6005200007102100F005FC80BD39
:101DF00060100240B0B594B00446002513951295CA
:101E0000119510950F9501A8001D3421FEF7B9F921
:101E100020681549884201D014B0B0BD0124A00348
:101E2000019001A801F048FB002801D0FFF77EFADD
:101E300020050E494A6902434A614A6902400092FC
:101E400000980868204308600868204000901195B9
:101E50000320109010200F900520000700990FA973
:101E600000F05EFC14B0B0BD002401404C100240F4
:101E7000F0B581B00D4604464069082801D1082715
:101E800004E02068C068C00755D1042700F022FD97
:101E900006462168086838421CD001204202A36D22
:101EA0001343A365CA681205920F54D1A27E002A7B
:101EB00051D10A6812074ED58A68520742D4224689
:101EC00058324B680C25AB434B60FF250235136835
:101ED000AB433EE0681C2AD0002D0CD100F0FAFC88
:101EE0002168086838420FD008683842F6D0D4E735
:101EF00008683842D1D100F0EDFC801B2168A8426F
:101F0000F6D908683842F3D1542000212154A06D3D
:101F100004210143A165032001B0F0BD08683842E7
:101F2000BBD108683842B8D108683842B5D10868D2
:101F30003842F3D0B1E7A06D20210143A165012013
:101F400001B0F0BDA26D20231343A36522465C328D
:101F5000E36D03431360227E0020002A01D001B00C
:101F6000F0BD0C220A6001B0F0BD000070B5014662
:101F7000006882680220520711D454228A5C012A28
:101F80000DD00C4654340120054620700E460846FC
:101F9000FEF738FE002803D000202070284670BDD0
:101FA000B06D09490140012000020818B065002009
:101FB000F06531681C220A6020708A68344B134037
:101FC0001A1D8A6070BDC046FEF0FFFFF0B581B0FB
:101FD00004465420205C012802D1022001B0F0BD4B
:101FE00026465436012737702068816849072AD46D
:101FF00081688268D2071FD0022211401CD18168FB
:1020000005220A40012A36D18168214A0A40911CE2
:1020100081600321016000F05DFC05462068806856
:10202000C00709D000F056FC411B20680329F6D3F5
:102030008168C907F3D01EE0FF200230A16D814303
:10204000583400201EE08168890704D48168104A52
:102050000A401032826000F03DFC0546206881682D
:102060004907C5D500F036FC411B20680329F6D38B
:1020700081684907F3D5A06D10210143A165E16D89
:102080005C343846002232703943216001B0F0BD23
:10209000E8FFFF7F70B503460120CC0720D0114C2C
:1020A0000C40651EAC4103261546F541032D17D89B
:1020B0007D442D796D00AF440B0105090B4C0C409C
:1020C0000ED105E0084C0C400AD101E0002C07D1EC
:1020D0001868416181681823994311438160002089
:1020E00070BDC04680FFFF7F00FFFF7F0000FF7FC5
:1020F000B0B50125002814D00446407F002804D143
:1021000000202077204600F033F802206077207905
:10211000002808D0A168E2682046FFF7BBFF00282E
:1021200008D02846B0BD2068104941618168182256
:102130009143816000256079002801D0216900E089
:10214000E943206801611321490182688A4361697A
:10215000114381600B21C90182688A43A16911433F
:102160008160012060772846B0BDC046B71DC1041C
:1021700081B000680849884201D001B07047012051
:10218000000306490A6802430A6009680140009199
:10219000009801B07047C04600300240481002402D
:1021A00070B500282CD0014624314A78022A29D162
:1021B000046822680E239A432260426C15682F4BF4
:1021C0001D4015602568012295432560046C1C257F
:1021D00025401446AC408B4D2E6826432E60846CFF
:1021E000C56C6560046D002C05D025681D40256018
:1021F000436D806D58604A70002000220A7070BDE7
:10220000012070BD0422C263012000220A7070BD4B
:1022100070B5014624314A78022A2BD103681A6826
:102220000E24A2431A601C68012294431C60446C73
:102230002568124B1D402560046C1C252540144662
:10224000AC40E34D2E6826432E60846CC56C6560FF
:10225000046D002C05D025681D402560436D846DFC
:102260005C6000240C704A70816B002900D08847A4
:10227000204670BD0421C163012070BDFFFEFFFF39
:10228000F0B583B0002845D004462430029026687B
:1022900030680127B8433060002535609748301812
:1022A00014210191FEF7D4FA80001C2101403A4626
:1022B0008A40C7490B6813430B608F494550421849
:1022C000803120646264A164FC20304008380199A8
:1022D000FEF7BEFA1F21014038468840E064884975
:1022E00008606068401E032806D882008918002212
:1022F000CA67874083480760E56325656565A5650E
:10230000E56225636563A5630298057045702846FC
:1023100003B0F0BD0125284603B0F0BDC06B704787
:10232000F0B585B0016C1C240C4004231946A14073
:10233000A74A121F15680A4603952A40564256417D
:10234000049005682A6817461F4078427841304358
:1023500032D00295012102261046304047424741C3
:10236000A640039B1E420D46019400D03946049FAF
:102370003C462434002931D00820024056425641C0
:102380000198C340180700D53546002D24D1029A84
:1023900010680E218843106001200146019A914087
:1023A0008B4B1A680A431A60F86300212170607031
:1023B000796B00290ED10FE02868800602D42868C6
:1023C00098432860824A106808431060049F396B64
:1023D000002901D03846884705B0F0BD029A106840
:1023E000800605D410680A218843106001206070BF
:1023F000002020707649086830430860F96A002997
:10240000E8D1E9E704000240F0B587B000284AD0DF
:102410000446014624310220069148702768386836
:10242000344901403960344E30468030A06433482E
:10243000381814252946FEF70BFA8000811920640C
:1024400005916164FC20384008382946FEF700FAFF
:102450001F22024001210B469340E364A0680490D0
:10246000E5682646103645CE0196E6690296266A4C
:10247000039628431043019A10430E4602990843DD
:102480000399084339680143049A11433960B10341
:102490001B488A420AD1002205990A6062600360E3
:1024A000154613461BE0012007B0F0BD6168CFB2AE
:1024B000059A17600360491E00220329154613463A
:1024C0000DD8791E8A0082180023D36703250D409A
:1024D0003346AB400B490B607C32BC3005460020D4
:1024E000E06322656565A365069908704E7007B0C4
:1024F000F0BDC0460F80FFFF00080240F8FFFDBF9F
:102500008408024044090240F0B582B00446242009
:10251000205C012802D1022002B0F0BD17462546FA
:102520002435012028706A78012A2ED10220687093
:102530000020E06325682A6801260196B2432A60DC
:10254000A26CE66C5660226D0092002A02D0626D89
:10255000A66D5660226C1C261640019AB2401C4E95
:10256000366816431A4A16606B60A368102B3A4609
:1025700000D00A46AA60102B00D03946E9602968CD
:10258000226B002A07D00E220AE000212970802148
:10259000E16302B0F0BD0422914329602A680A2158
:1025A0001143296001990902626C1368DB0302D5AB
:1025B00013680B431360009B002B02D01A680A4378
:1025C0001A602968019A1143296002B0F0BDC04623
:1025D00004000240B0B5044600F07CF90546601CDA
:1025E00002D004484068041900F074F9401BA0426E
:1025F000FAD3B0BD08000020F0B58AB003900029DE
:1026000070D00E46A948039A824201D0062000E00D
:1026100005200B221207039B9B180A22D341029329
:10262000042B00D3029003982030019000273946F4
:102630003C463A46009626E08F40039D2868384382
:1026400028601C203C46099F38400691079981402C
:10265000D0088000019E33588B4306993350A868F8
:10266000A043A8606868089EB0436860E868A0431B
:10267000E860009E059C521C3046D0403F1D891CDE
:10268000083400282ED00120904005463540F2D075
:10269000089009971820059420400F24079484403F
:1026A00003271646BE43824B9B1904931E6E069465
:1026B0002640029B83409E42BED1049C60347D4BE9
:1026C0001868A84318605868A8435860784B586841
:1026D000A84358601868A84318602068069B984370
:1026E0002060A9E70AB0F0BD80B503F00DFC80BD05
:1026F000B0B50446074D2868204203D02C60204620
:1027000000F00AF86868204203D06C602046FFF7AA
:10271000EBFFB0BD0C18024080B503F0F5FB80BDA7
:10272000F0B58AB004900C68002C00D1BCE00E46D5
:102730005E480499814201D0062000E005200B216B
:102740000907049A52180A21CA410192042A00D3A7
:102750000190049820300090002217461546134639
:10276000079621460DE009980143524801605B1C21
:1027700031680846D84008323F1DAD1C002800D102
:1027800092E0012098400140F1D005970392099111
:10279000324603273946A9400295CD4371680E465B
:1027A0003E40741E012C0695089110D804998C683F
:1027B0002C40D768029DAF4027438F60089AD4060B
:1027C000E40F9C404F68874327434F6006E0032E89
:1027D000029D03D13E46039A059F21E00499C868F3
:1027E000069A1040079A9468AC400443CC60022ECD
:1027F000039A059F14D11C2038400F218140DC082A
:10280000A4000894009A16598E43079C21698140C0
:10281000314308981150039A6068032608900640D7
:10282000AE4004990868069C204030430860089830
:102830008003800F079E9AD0182010400F218140FE
:1028400003241E46A6431A4FBC19266E8E430199D7
:1028500081403143079E216639687068C40202D501
:10286000099C214301E0099CA143114C216061684E
:102870008402059F02D5099C214301E0099CA143E4
:102880000B4C61600B494968840302D5099C2143C4
:1028900001E0099CA143074C61602168C00300D599
:1028A00061E70998814360E70AB0F0BD0014005069
:1028B000001802408018024000690840411E88410B
:1028C0007047002A02D01822815070472822815078
:1028D00070470000014800687047C046A00500200E
:1028E000B0B50246034640335C780220202C17D155
:1028F0001C78012C14D02420587010680268012420
:10290000A2430260220305689543056002680A43FA
:102910000260016821430160002018702021597075
:10292000B0BDB0B50246034640335C780220202C8F
:1029300017D11C78012C14D024205870106802681C
:102940000124A24302600F22120205689543090286
:102950002943016001682143016000201870202193
:102960005970B0BDB0B5002812D0054640352421BD
:10297000697001680A6801239A430A60044600F0FE
:102980000DFA00206064687020632870A870B0BDE4
:102990000120B0BDF0B581B0002822D005464035F9
:1029A0006978002905D100212970044600F020FA39
:1029B00020462421697001680B68012293430B6053
:1029C0000F231B0644689C430C618C681C4B1C4005
:1029D0008C608468C668012E06D1D60334438C60AF
:1029E0000CE0012001B0F0BD2127BF023C438C6008
:1029F000022E03D1D4024E68264302E0D4024E6870
:102A0000A6434E604C680F4E26434E60CC681C4077
:102A1000CC60036944691C4383691B022343CB6078
:102A2000C369046A1C430C600B6813430B600021EC
:102A3000416420226A7001630846A97001B0F0BDAC
:102A4000FF7FFFFF00800002F0B587B00446054617
:102A500040356E780220202E00D0ABE02E78012E7B
:102A600000D1A7E0069103930492012005902870FD
:102A7000FFF730FF06462068816909041AD4222135
:102A800069701021A970002262640399618504991C
:102A9000616203926263618D090AB949B94B26D01C
:102AA000069A0A4047681F4017434E4A3A4342601D
:102AB000FF2228E00598C70302E081693942DED091
:102AC00019212046324602F0D9FF002877D1FFF7BE
:102AD00001FF811B20681A29EFD381693942ECD0AC
:102AE000606C2021084360646970012073E0628D8E
:102AF00047681F40069B0B40D1B20904C9183943EF
:102B0000374B0B4343600C9F2285608D002849D0D2
:102B100006999B4801400120029040060691081842
:102B200004900EE0608D208521684A68984B1A4019
:102B3000C0B20004049B184310434860608D002815
:102B400030D020463946324603F0D2F8002833D13F
:102B5000606A2168496A0170608D401E6085606A04
:102B6000401C6062208D401E2085618D0029E5D0CB
:102B70000004E3D100968021002220463B4603F06A
:102B800039F8002818D1608D000ACBD0FF202085AD
:102B9000206841687E4A1140069A11437D4A1143DC
:102BA0004160CBE720463946324603F007F900285A
:102BB000059807D007B0F0BD029807B0F0BD0598A2
:102BC00007B0F0BD20682021C1614268724B1340FC
:102BD00043606970039800212970A97007B0F0BDA7
:102BE000002400020024FF01F0B587B0044605462A
:102BF00040356E780220202E00D0AAE02E78012EDB
:102C000000D1A6E00691039304920120059028705C
:102C1000FFF760FE06462068816909041AD4212165
:102C200069701021A970002262640399618504997A
:102C3000616203926263618D090A5149514B26D04A
:102C4000069A0A4047681F401743504A3A43426079
:102C5000FF2228E00598C70302E081693942DED0EF
:102C600019212046324602F009FF002876D1FFF7ED
:102C700031FE811B20681A29EFD381693942ECD0DB
:102C8000606C2021084360646970012072E0628DED
:102C900047681F40069B0B40D1B20904C91839434D
:102CA000394B0B4343600C9F2285608D002848D030
:102CB0000699334801400120029040060691081809
:102CC00004900EE0608D208521684A68304B1A40E0
:102CD000C0B20004049B184310434860608D002874
:102CE0002FD020463946324603F0ABF8002832D1C7
:102CF0002068616A0A788262608D401E6085481C87
:102D00006062208D401E2085618D0029E6D0000480
:102D1000E4D100968021002220463B4602F06AFF63
:102D2000002818D1608D000ACCD0FF2020852068B3
:102D30004168174A1140069A1143164A11434160EF
:102D4000CCE720463946324603F038F8002805988B
:102D500007D007B0F0BD029807B0F0BD059807B0E6
:102D6000F0BD20682021C16142680B4B13404360D5
:102D70006970039800212970A97007B0F0BDC046A2
:102D8000FF030000009800FC002000020020FF016B
:102D9000009C00FC0000FF0100E800FEB0B50068E8
:102DA000524988420ED04F49884207D04E49884246
:102DB00017D10120C40281020C4806E0102408212A
:102DC000094802E0802440210648724A1368034003
:102DD0001360484D2846FFF70FFC28462146FFF7B1
:102DE0000BFCB0BDFFFFDFFFFFFF7FFFFFFFBFFF5B
:102DF000B0B594B004460025139512951195109521
:102E00000F9501A83821FDF7BCF9206835498842A3
:102E10003FD03549884223D03449884260D12020B0
:102E2000019001A800F048FB002801D0FEF77EFACF
:102E30002F4C206802210843206020680840009041
:102E4000042013901295119512201090C0200F901D
:102E5000009828480FA9FFF763FC0120400538E0DF
:102E6000234C20680221084320602068084000901D
:102E700004201390129511951220109003208002C7
:102E80000F9000981B480FA9FFF74AFC012080050E
:102E90001FE04020019001A800F00EFB002801D0A7
:102EA000FEF744FA124C2068022108432060206893
:102EB0000840009004201390129511951220109054
:102EC00018200F9000980B480FA9FFF729FC01204C
:102ED000C005E1680143E160E168014000910098AC
:102EE00014B0B0BD008800400058004000540040BD
:102EF0004C100240000400501B48406802490A6818
:102F0000101808607047C046A005002010B50024C6
:102F1000204600F009F8002801D0012010BD00F083
:102F200025F8204610BD000070B50F4E71680124D1
:102F3000002916D005467D20C000FDF789FC01461A
:102F400058480068FDF784FC01F04AFF032D08D8BB
:102F5000002806D10024E0432946224600F038F834
:102F60003560204670BDC0460800002082B00120B8
:102F70000107084A13680B43136013680B40019361
:102F80000199916801439160916801400091009816
:102F900002B0704758100240002809D41F21084091
:102FA0000121814003480160BFF34F8FBFF36F8F52
:102FB0007047C04680E100E0002805D41F2108408A
:102FC00001218140014801607047C04600E100E0F6
:102FD000002805D40322034693430A4A9A1803E0C3
:102FE0000C220240064BD2188007C00E8901C9B2DC
:102FF0008140FF2383401068984308431060704766
:1030000014ED00E000E400E0BFF34F8F04480549F1
:103010000160BFF34F8F00BF00BF00BF00BFFAE7E2
:103020000CED00E00400FA0570B503256902374C89
:1030300023680B400126720290422AD193422FD07E
:1030400020688843104320601648016832204843B6
:103050001549FDF7FDFB0221091AB002626902421F
:1030600012D0032910D0626902420DD002290BD080
:103070006269024208D0012906D06269024203D087
:103080000A1D00291146E9D161690142284607D08D
:1030900070BDB002834203D022688A43024322609B
:1030A000002070BD1000002040420F000121890364
:1030B000164A13688B431360116802230B430521E2
:1030C0008B43136009490B68042213430B600128EA
:1030D00004D130BF086890430860704740BF20BFEC
:1030E00020BF0868904308607047C04610ED00E0BC
:1030F0000320410205480068084070470120000293
:1031000002490A6802430A607047C04600700040E6
:10311000F0B581B004462B4F38683A6839684906E3
:103120003B460C3B1D682D0703D4274B1B681B092E
:1031300000E01B6803254004490F1B061B0F0B2BE7
:1031400000D30B232A40450E491CD9487A441279F2
:1031500052009744010106059800D44A105800E037
:103160001A48FDF775FB454338680026C003304612
:1031700006D538688002C00E411C2846FDF768FB62
:1031800020603868C001304606D460603868C000EE
:103190000DD4A66001B0F0BD38680001400F411C9D
:1031A0002846FDF755FB60603868C000F1D53868E7
:1031B000400F411C2846FDF74BFB0646A66001B0B8
:1031C000F0BDC0460C1002409410024000127A007C
:1031D00010B584B00021FF2816DDAE4A90424BDCCA
:1031E000AE4A904200DD7BE001221302984200D1FA
:1031F000CAE092029042084600D034E1A848006834
:10320000C00100D5FCE0EFE0421E1F2A58D8084656
:103210005200C0467A449288520097441F009F0093
:103220002401240124012401240183002401240118
:1032300024012401240124012401A90024012401E2
:103240002401240124012401240124012401240156
:10325000240124012401240124018D0090480268E6
:10326000032111404900C0467944898849008F44B0
:10327000DF00EB00E3008900874A904247DC01222F
:103280009303984200D193E0D20390423CD1844A08
:1032900090688005800F830001A4E3589F46C046D4
:1032A00067340008513400089D330008B13200082B
:1032B0007D4800688003C1177E48084004B010BDF7
:1032C000402800D1A2E080281ED1754A1068000372
:1032D000800FC0467844007940008744A95FADB9AB
:1032E0000122D302984200D17AE0520390420BD1DE
:1032F0006B4A10680001830F6A48C0467B441B7903
:103300005B009F4401AB7DB0084604B010BD0122B4
:103310001304984200D18BE052049042084600D139
:1033200086E0A0E0F24801688905890F79440979AF
:1033300049008F447D898127ED4800688004800F13
:10334000800002A2125808469746C0463134000851
:10335000493400083934000867340008E44801683B
:103360000907890F7944097949008F44616D650B1C
:10337000DF4801680905890F7944097949008F44BC
:1033800057635B01806864E0D94A10688002800F4F
:1033900078440079400087444B014F5BD068800738
:1033A000084660D5D06840075FD5FA2004B010BD4C
:1033B000CF4800688000800F800002A212580846A3
:1033C0009746C04649340008D53300083934000810
:1033D0006734000801A8FFF79BFE019804B010BDF8
:1033E000C348006880010BD4072000032E498C6875
:1033F0000440601E844100F025FAA04004B010BDD6
:1034000001A8FFF785FE029804B010BDB848006817
:103410008003800F800002A2125808469746C046DB
:103420003134000849340008393400086734000892
:1034300000F008FA04B010BD1B4800684005C11731
:103440001B48084004B010BD00F00EFA04B010BDD7
:10345000906802210140880304B010BD124B186827
:103460008007084605D404B010BD7D20000204B0DA
:1034700010BD1868000702D4D068000900E0186881
:103480000006000F0B2800D30B20800007490858C6
:1034900004B010BDFF3F0000FFFF0000FF07000069
:1034A00088100240006CDC0200100240089B0008FB
:1034B0000024F40090D00300F0B587B0044601204A
:1034C00007020590050760780006894E04D40020A5
:1034D0002168CA0749D06BE0303E3068284003902D
:1034E00006D130682843306030682840069006983E
:1034F000029604957F4E306838433060FFF7EAF952
:1035000005463068384206D1FFF7E4F9401B02282F
:10351000F7D9032021E0032001900102C64800688A
:10352000084012D0616B88420CD0C34B18680599D3
:1035300009041A680A431A601A688A431A606E49B5
:1035400008401860C00700D0C2E0BB4A10686A4952
:103550000840616B01431160002003990029644E0B
:10356000049D1ED02168CA0722D18A0728D4CA0622
:103570002ED40A0735D48A063CD44A0643D40A0618
:103580004AD4394251D14A04059F58D43A068B0493
:1035900068D44B05594B7AD4090500D589E007B0AA
:1035A000F0BD029A1168A94311602168CA07DCD0F6
:1035B000326803239A436368134333608A07D6D57E
:1035C00032680C239A43A36813433360CA06D0D5EC
:1035D000032292023368934322691A4332600A0736
:1035E000C9D50322120233689343E2681A4332605A
:1035F0008A06C2D5032212033368934362691A43D1
:1036000032604A06BBD50322120433689343A26991
:103610001A4332600A06B4D50322920433689343F6
:10362000E2691A4332603942ADD003221205336891
:103630009343226A1A4332604A04059FA6D5226B3F
:10364000AA4206D13B0435467C3D2E681E432E60BF
:10365000274E03231B0735689D43154335603A0603
:103660008B0496D5E36AFD06AB4204D135467C3D1A
:103670002E6816432E600325AD061D4E3668AE43F8
:103680001E431B4B1E601A4E4B051C4B84D5656AAE
:10369000954204D17C3E376817433760059F144E2E
:1036A00036681E402E43124D2E60114E090500D47F
:1036B00075E7A16A7C06A14204D134467C3C2568AA
:1036C0001543256032681A400A43326007B0F0BDE6
:1036D000FFF700F90546594E57480068800700D5A6
:1036E00033E7FFF7F7F8401BB042F5D9019834E70C
:1036F0008810024000700040FFFCFFFFFFFFFFFE4C
:10370000F0B583B004464B4D28680726304081420F
:1037100008D92868B04308432860286830408842A8
:1037200000D083E02068C2074D4F51D06068042864
:103730002BD8820001A39A589746C04651370008FB
:103740007F37000867370008733700085D370008C7
:103750003A46083A126892071BD467E0364A526824
:10376000920763D515E03A46083A126892035DD590
:103770000FE03A46083A1268920157D509E03A46F6
:10378000083A1268520551D503E02B4A1268920795
:103790004CD5029139680196B14301433E463960E8
:1037A000FFF798F80546254F3068382101406068DA
:1037B000C000814207D0FFF78DF8401BB842F3D913
:1037C000032003B0F0BD206802991A4D3746019ED0
:1037D000820706D50F2212023B689343A2681A4360
:1037E0003A602A683240914207D22A68B2430A43BB
:1037F0002A602A6832408A4218D1400705D5300332
:1038000039688143E0680843386000F02DF8396872
:103810000905090F0A4A515C1F220A40D0400F498E
:1038200008600020FFF780FB03B0F0BD012003B06B
:10383000F0BDC046002002409010024088130000F6
:10384000F09A000805480068054909684904490FCD
:10385000044A515C1F220A40D040704710000020EB
:1038600008100240009B000810B52C4C201F006877
:1038700038210140206805D0182926D103221040A4
:10388000012822D120460C3802680820024000D0CE
:103890000420002A02D00B22D24300E08822A25842
:1038A000C2400F20104000230B281A4600D80246C1
:1038B0009000204A12580029104602D1182912D02F
:1038C00010BD18461829FBD10DE008460838002223
:1038D000272805D8400812A318581829F0D102E06B
:1038E00010461829ECD121680320084021684906B8
:1038F000490F491C022803D0032802D10F4A00E0D7
:103900000D4A20684004400E5043FCF7A1FF216897
:10391000490F491CFCF79CFF10BDC0460C1002402B
:103920000024F40000127A0000000000007D000076
:1039300000800000089B00080024F40000127A00B8
:10394000F0B589B00746F5488668382103910E40E6
:10395000C16803200590014004913878C0065DD409
:103960003878C00710D0102E06D0182E00D04BE1AA
:103970000498032800D047E1E8480068800303D595
:103980007868002800D1B4E03878800719D5082E6F
:1039900006D0182E00D045E10498022800D041E15D
:1039A000F5480068400503D5F868002800D1A0E07C
:1039B0007F200006F04A51688143386900060843B9
:1039C00050603878000775D43878400700D593E008
:1039D000BC6A0020002C00D17EE2E74A9168039B7C
:1039E0001940182900D184E00190012319061068BC
:1039F00004918843106003935E06FEF76BFF054653
:103A0000022C00D0ADE1DC4C2068304200D101E254
:103A1000FEF760FF401B0228F6D97EE2002E06D09A
:103A2000182E00D08DE00498012800D089E0D249FA
:103A30000868800702D5F86900285AD07D6A0868AE
:103A4000000700D593E0CD4840680009F0242040ED
:103A5000854200D991E0C84A1068082101431160ED
:103A60001068A04328431060FF2000025168814382
:103A7000386A000208435060002E00D018E2029716
:103A80000120BD4FB96DC90000D5ADE10446000766
:103A9000B96D0143B965B96D0140089108980120DD
:103AA00000070190FFF724FB0146B86D019A90438F
:103AB000B8659DE17869B14C002800D193E0B86900
:103AC000411E8841800061680422914308186060AB
:103AD0006068012101436160FEF7FCFE05466068F5
:103AE000800700D570E7FEF7F5FE401B1128F6D9D8
:103AF00013E2012009B0F0BD0120049002079E49A5
:103B0000886D1040019006D1886D10438865886DDE
:103B10001040069006980092994C2068C00546D443
:103B200004980602206830432060FEF7D3FE054665
:103B3000206830423BD1FEF7CDFE401B0228F7D96A
:103B4000EBE1F84C2068F969002900D1AEE00121D1
:103B500008432060FEF7BEFE05462068800700D5BA
:103B6000C9E0FEF7B7FE401B0228F6D9D5E1086888
:103B7000F0242040854200D86DE702970120E94FEC
:103B8000B96DC900019066D40007B96D0143B965EC
:103B9000B96D014007910798012000070090FFF7D9
:103BA000A7FA0146B86D009A9043B86556E0B86828
:103BB000C107E24EDC4C63D12168049A9143216035
:103BC0002168042291432160002863D1FEF782FE20
:103BD00005462068800700D44EE1FEF77BFE401BBF
:103BE000B042F6D999E16068012188436060FEF730
:103BF00071FE05466068800700D4E5E6FEF76AFEC0
:103C0000401B1128F6D988E10120840479680C430F
:103C1000C44D2A6805231B049C4200D0C0E00A431F
:103C20002A60C2E0BF4B186801218C02FA680902C1
:103C3000002A00D1C8E008431860FEF74BFE054695
:103C4000B8480068204200D0B2E6FEF743FE401BB1
:103C50000228F5D961E1FFF74BFA014601984202CB
:103C60009142029F08D1812D04D3B02D06D8902D0A
:103C700000D942E1002156E07F2D51D9022152E0C6
:103C80002168400703D5042001432160216804987E
:103C900001432160FEF71EFE05462068800716D40A
:103CA000FEF718FE401BB042F7D936E101218843E8
:103CB0002060FEF70FFE05462068800700D44FE61F
:103CC000FEF708FE401B0228964CF5D925E1206836
:103CD0000297B968090655D480218843206004986A
:103CE000C7022068384200D1CAE0FEF7F3FD401B4E
:103CF000B042F6D911E12068082101432160206813
:103D0000F0218843796A01432160FF200002616845
:103D10008143386A00020843606021E600100240D7
:103D2000703D69426941814A13680725AB435B18BE
:103D3000136012682A408A4200D0CDE0794A1068A8
:103D40000821014311601068A043796A01431160A2
:103D5000FF20000251688143386A00020843506026
:103D6000A6E0704C2068304200D182E0FEF7B2FD40
:103D7000401B0328F6D3D0E0001002409010024010
:103D8000007000408021084320600498C70220682A
:103D9000384275D1FEF79EFD401BB042F7D9BCE01A
:103DA0009A432A60002900D198E04404FEF792FD6E
:103DB00005465C480068204200D0E5E5FEF78AFD34
:103DC000401B6428F5D9A8E088431860FEF782FDFF
:103DD000054654480068204200D1F2E5FEF77AFD1E
:103DE000401B0228F5D998E00446FFF781F9014607
:103DF000204662029142029F08D1812D04D3B02D4A
:103E000006D8902D00D98BE0002147E07F2D42D9C4
:103E1000022143E0E0684A490140F86A3D6B7B6B50
:103E2000BA6B0292FA6B009222463C6C084328431C
:103E300019020143009801432143059D0298014363
:103E4000D16003980007D1680143D16010680499DC
:103E500008431060FEF73EFD0446324800683042D9
:103E600007D1FEF737FD001B0228F6D9284609B016
:103E7000F0BD019809B0F0BD0297206800063ED45D
:103E800001980028029F00D0A2E52649886D009A7B
:103E9000904388659CE5703D69426941234A1368F7
:103EA0000724A3435B181360126822408A4213D18F
:103EB000FFF7DAFC1B4989680905090F1C4A515CA8
:103EC0001F220A40D0401B4908601B480068FFF7CA
:103ED0002BF8002800D143E509B0F0BD4404FEF7FB
:103EE000F9FC05460F480068204200D14CE5FEF77A
:103EF000F1FC401B6428F5D90FE0012113E720688D
:103F00008021884320600498C70220683842B7D0D7
:103F1000FEF7E0FC401BB042F7D9059809B0F0BDB0
:103F20000121BBE700100240901002400020024037
:103F3000F09A0008100000200800002088130000FC
:103F40008C80C1112C21415C012901D102207047D4
:103F50002C300221417011218902364A13688B43AB
:103F60001360002101700122427008467047C0466C
:103F7000F0B585B004462C20205C012802D1022037
:103F800005B0F0BD0291039201932C3402206070C1
:103F9000012004902070274F38687D21CE003146E3
:103FA000183108420DD0FEF795FC054638460C380E
:103FB0000068400705D5FEF78DFC401BB042F5D9DF
:103FC00015E00498800239688143396004207864E0
:103FD000FEF780FC054638460C380068400709D4D7
:103FE000FEF778FC401BB042F5D9FF20F8600323B0
:103FF00018461AE001990A0402980243381F026029
:104000003A6807208243039802433A600A4800292D
:1040100000D0001D049B01681A070A4302601120AA
:1040200080023968014339600020002121706370EB
:1040300005B0F0BD1828004080180240704700000D
:1040400010B5044606480168490704D5042181607B
:104050002046FFF7F3FF2D200121215410BDC0465B
:1040600054280040F0B581B000285CD004460546D5
:104070002C356878002804D100202870204600F0F4
:104080006BF8022000956870A14FCA20B8615320D8
:10409000B8613868400611D438688021014339601E
:1040A0007D20C600FEF716FC05463868400605D49C
:1040B000FEF710FC401BB042F7D931E0F868254903
:1040C0000140F960606821690143A0690843F9680B
:1040D0000143F960E068A1680904014379601F2089
:1040E000000239688143606AA26A0843104338605D
:1040F0003868802188433860F868800616D43868AC
:104100002021884338607D20C600FEF7E3FB05468A
:10411000386880060AD4FEF7DDFB401BB042F7D9B1
:10412000012004210FE0012001B0F0BD072040076D
:10413000F9688143E069226A0A43024360691043D7
:10414000F86000200121FF22BA61009A517001B08D
:10415000F0BDC046BFFF8FFBB0B590B0044602A8CB
:10416000001D3021FCF70DF820681449884201D069
:1041700010B0B0BD012420020F90E503029502A803
:10418000FFF79AF9002801D0FDF7D0F80C48816BB1
:1041900029438163A10202680A4302600068084063
:1041A000019001980224002120460A46FEF710FFE4
:1041B0002046FEF701FF10B0B0BDC0460028004009
:1041C00058100240F0B585B02C23C35C012B02D1FE
:1041D000022005B0F0BD2C30022343700123037090
:1041E000002A019307D0CA7813044A781202D7181C
:1041F0008A7803923DE04D78EA0603D5EF22154018
:104200000A354D70CA7800260A2A0FD30A3AD3B26B
:10421000CD245C43E30A0A245C43121B1B011033C8
:104220001343DAB20A2D06D233460EE03346134367
:10423000DAB20A2DF8D30A3DEBB2CD245C43E30A8F
:104240000A245C432D1B1B01103312042B43DBB2E9
:104250001F028D780A2D09D30A3DEBB2CD245C43B1
:10426000E30A0A245C432D1B1E01103617432E431C
:1042700003960490874ECA20B0615320B06108783D
:1042800002903068400611D43068802101433160CB
:104290007D20C400FEF71EFB05463068400605D4AD
:1042A000FEF718FB401BA042F7D924E00398C0B2E8
:1042B000074302984003C0218F4307433046083824
:1042C00007603068802188433060F16800208906EB
:1042D00015D4074630682021884330607D20C40013
:1042E000FEF7F8FA05463068800607D4FEF7F2FAC2
:1042F000401BA042F7D90120042301E03846019B6E
:10430000FF21B1610021049A1170537005B0F0BD16
:104310000C280040F0B583B004462C20205C012816
:1043200002D1022003B0F0BD009201912C34022092
:104330006070584ECA20B0615320B06101200290D5
:1043400020707D20C700306840060FD4306880217F
:1043500001433160FEF7BEFA05463068400605D4D9
:10436000FEF7B8FA401BB842F7D986E03846E8387D
:1043700031680140029D2802814266D0F1684020E8
:1043800008400099002905D00028019816D1002185
:10439000C17015E00028019801D10021C170027898
:1043A00000210A2A15D30A3AD3B2CD255D43EB0A80
:1043B0000A255D43521B1B0110330BE0C1788905B0
:1043C0000278120443781B029A188378D3180B439F
:1043D0002CE00B461343DAB2130442780A2A0CD3BA
:1043E0000A3AD5B20093CD236B43DB0A0A255D431D
:1043F000521B1D01009B103500E00D461543EAB22B
:1044000012021A4383780A2B09D30A3BD9B2CD256D
:104410004D43E90A0A254D435B1B09011031029DFA
:104420001943C9B20A43C1788B0513431A4919408D
:1044300032460C3A1160A904F2688A43F260C168FE
:1044400000690843F1680143F160306880218843C6
:104450003060F1680020890614D401903068202172
:1044600088433060FEF736FA05463068800607D488
:10447000FEF730FA401BB842F7D90120042501E0CD
:104480000198029DFF21B16100212170657003B088
:10449000F0BDC0460C2800407F7F7F0002480168C5
:1044A00002220A430260704710E000E0B0B5002825
:1044B00010D005465C350221697001680A68402306
:1044C0009A430A60044600F083F8002020662870B2
:1044D0006870B0BD0120B0BD5D21405C7047000038
:1044E000F0B583B000280AD003465C3341218E002A
:1044F000416A002906D000210161142106E0012053
:1045000003B0F0BD4168B14202D01C2100224250EC
:104510000025856259780029029306D1002119707F
:10452000044600F075F8029B204602275F70016880
:104530000A6840239A4301910A60C268234B012410
:104540009A42234600D32B461B03E50215430F2452
:10455000210200918D4201D0002585624568846862
:104560003540212189022140491904693C400C430E
:104570004169012739402143FC3685692E400E43AD
:10458000C16938240C403443016A80260E4026431A
:104590007903846A0C403443019E3460290C04245E
:1045A0000C4000990A4013432343416A10220A40F9
:1045B0001A43416B08230B401343736000210166CB
:1045C000084602994F7003B0F0BDC04601070000D5
:1045D00080B50068314988420CD03149884214D1F5
:1045E0000120000309498A6882438A600520000788
:1045F000E02108E00120800304490A6882430A6040
:10460000072041032848FDF7F7FF80BD58100240FE
:1046100010B586B00021059104910391029101919A
:1046200000681E4A904217D01D4A904233D10120A3
:1046300002031C4B5C6914435C615C691440009488
:10464000009A1A6802431A601A68024000920098A1
:1046500005200007E02214E001208003114AD368FE
:104660000343D360D368034000930098106802238B
:10467000184310601068184000900098072042030B
:1046800009480523059304910391022102910192A7
:1046900001A9FEF745F806B010BDC046003800403D
:1046A000003001404C10024000040050F0B585B0CD
:1046B000044607464437787E01280ED14120850004
:1046C0006068A84203D1A068002800D182E0387E4B
:1046D000012807D1022005B0F0BD02200021397663
:1046E00005B0F0BD0395029304920120064638768A
:1046F0000D46FEF7EFF80190002D75D0049B002BBE
:104700003046EBD004207876002222667B80E28758
:1047100025643B80A287A263E26422650720000231
:10472000E1680123049081421D4600D915462D03FE
:104730001E0322685068B04340195060D803A36834
:10474000834208D110684023984310600120800301
:1047500013688343136010684006029D019E03D4D2
:1047600010684023034313607A880498401C8142F8
:104770003FD2002A6CD0681C0CD11AE0007B216C5F
:104780000870206C401C20647888401E78807888EF
:1047900000285DD020688168C907EFD1FEF79AF83C
:1047A000801BA842F3D33DE0FEF794F878880028F8
:1047B0004ED020688168C907F6D0007B216C087054
:1047C000206C401C20647888401E788078880028FF
:1047D000EFD13DE0042078760093204613460A4648
:1047E00000F086F905B0F0BD30460021397605B0FD
:1047F000F0BD002A2CD0681C0BD11AE0216CC068D7
:104800000880881C20647888401E7880788800287A
:104810001ED020688168C907F0D1FEF75BF8801BC5
:10482000A842F3D303204FE0FEF754F8788800281D
:104830000ED020688168C907F6D0216CC068088056
:10484000881C20647888401E788078880028F0D101
:104850006068039988420CD1A0680121CA03904284
:1048600002D08902884204D1206801684022914325
:10487000016020462946324602F08CFE002805D011
:10488000206E202108432066216614E060680399A9
:10489000884210D1A0680121CA03904202D0890247
:1048A000884208D10320410220462A46334602F0BE
:1048B000C1FD0028E4D1206E002804D00120002191
:1048C000397605B0F0BD00200121797600213976D6
:1048D00005B0F0BDF0B587B0054604464434207EEF
:1048E000012802D1022007B0F0BD164604910593BD
:1048F000012007462076FDF7EDFF0390607E01283A
:104900005DD10499002900D1E4E0002E384657D04B
:1049100003200190607600202866EE87AE87A963A9
:1049200028642080E8642865029060802868012758
:10493000F903AA688A4208D10168402291430160C4
:104940000121890302680A4302600168490603D411
:10495000016840220A43026069684A424A41731E64
:10496000594259411143EA68604B9A4241D30029A8
:10497000039E07D0049A1188C160901CA863E88F39
:10498000401EE887E88F002874D00598401C0BD1A2
:104990001FE0A96B0A88C260881CA863E88F401ECC
:1049A000E887E88F002865D0286881688907F0D4F7
:1049B000FDF790FF801B05998842F2D342E0022068
:1049C0000021217607B0F0BDFDF784FFE88F0028B5
:1049D00050D0286881688907F6D5A96B0A88C2601B
:1049E000881CA863E88F401EE887E88F0028F0D174
:1049F00040E00029039E08D0049909780173A86B50
:104A0000401CA863E88F401EE887E88F002831D05B
:104A10000598401C0CD11DE0A96B09780173A86BA7
:104A2000401CA863E88F401EE887E88F002821D04B
:104A3000286881688907EFD4FDF74CFF801B059932
:104A40008842F2D30198029049E0FDF743FFE88FD6
:104A500000280FD0286881688907F6D5A96B0978E6
:104A60000173A86B401CA863E88F401EE887E88F9D
:104A70000028EFD1049703200390C1022846059F28
:104A80003A46334602F0D6FC00280FD12846394674
:104A9000324602F07FFD002808D1039841022846E3
:104AA0003A46334602F0C6FC002804D0286E202186
:104AB000084328662966A868002807D100200690C8
:104AC0002868C1680691806806900698286E0028BC
:104AD000049F04D038460021217607B0F0BD6776E8
:104AE00002980021217607B0F0BDC0460107000002
:104AF000F0B585B0044607464437387E012802D118
:104B0000022005B0F0BD1D460292039101263E76BB
:104B1000FDF7E0FE0490797E012900D0A7E003981C
:104B2000002800D149E10298002800D145E1002D7C
:104B3000304600D1A7E0787E042801D005207876A1
:104B4000002323667D80E587E168A44A0120019166
:104B50009142064600D31E46360302032068416890
:104B6000914389194160029921643D800399A163B1
:104B7000E3642365A5870168490603D401684022E0
:104B80000A4302600A9E61684A424A41691E4B42DA
:104B90004B4113430199914A914278D3002B07D09E
:104BA000039A1188C160901CA063E08F401EE087CB
:104BB0000125701C32D101E0FDF78CFEE08F00284A
:104BC00003D17888002800D1CEE020688168890769
:104BD0000DD5E18F00290AD0012D08D1A16B0A88DB
:104BE000C260891CA163E18F491EE18700258168AD
:104BF000C907E1D079880029DED0216CC06808801F
:104C0000881C20647888401E78800125D4E7FDF751
:104C100061FE0499401AB04200D3D3E0E08F00282F
:104C200003D17888002800D19EE020688168890738
:104C30000DD5E18F00290AD0012D08D1A16B0A887A
:104C4000C260891CA163E18F491EE187002581684C
:104C5000C907DCD079880029D9D0216CC0680880C8
:104C6000881C20647888401E78800125CFE7412089
:104C7000820063680220934205D1042903D1A16810
:104C8000002900D14BE70021397605B0F0BD002B9B
:104C900008D0039909780173A06B401CA063E08FD2
:104CA000401EE0870125701C33D101E0FDF712FEA4
:104CB000E08F002802D17888002855D020688168CC
:104CC00089070FD5E18F00290CD0012D0AD1A16BE6
:104CD00009780173A06B401CA063E08F401EE08741
:104CE000206800258168C907E0D079880029DDD0D7
:104CF000007B216C0870206C401C20647888401E6A
:104D000078800125D2E7FDF7E5FD0499401AB0420D
:104D100058D2E08F002802D17888002824D020685B
:104D2000816889070FD5E18F00290CD0012D0AD1A8
:104D3000A16B09780173A06B401CA063E08F401E3B
:104D4000E087206800258168C907DCD079880029C0
:104D5000D9D0007B216C0870206C401C20647888BE
:104D6000401E78800125CEE703200390C102204633
:104D70003246049D2B4602F05DFB00280FD12046F1
:104D800031462A4602F006FC002808D10398410269
:104D9000204632462B4602F04DFB002819D0206EEB
:104DA00020210843206621660120216E00290AD0B7
:104DB00001200021397605B0F0BD3046002139765A
:104DC00005B0F0BD0320012179760021397605B0C8
:104DD000F0BD0020216E0029EAD1F4E701070000B0
:104DE000401E010E01D00120704707490B4A506058
:104DF000064803680B400321890759180160002009
:104E00009060072111607047FFFFFF0020ED00E078
:104E100002480168022291430160704710E000E0FF
:104E2000B0B58421415C012901D10220B0BD014609
:104E3000843124224A600268136814680125AC4357
:104E400014606C07A34313600022426610460A7088
:104E500020224A60B0BD70B58C23C358202B10D1DE
:104E60000123002918D0002A16D001252B038468BD
:104E70009C4208D1CB0706D00369002B03D12846FA
:104E800070BD022070BDC56600260667044603F0AB
:104E900007FA0346002801D0184670BDE06E0128CD
:104EA0002B46F9D1206810210162EFF31080012216
:104EB00082F31088226813680B43136080F3108814
:104EC0003346184670BD000010B50C460068A8496E
:104ED000884200D010BD044800F092F80348448096
:104EE0000121017010BDC046CC04002074000020D8
:104EF00070470000F0B583B0054668352A7F012A67
:104F000002D1022003B0F0BD06468836242232606A
:104F100007683A6802923A680124A2433A6007227D
:104F20005206BB6893430B43BB60406E002820468B
:104F300015D0B8680190B868400F2E49095C2E4A18
:104F4000105CC000FBF784FC044601980001400F90
:104F50002849095C284A105CC000FBF779FC2880CE
:104F60006C8002983860002028772021316003B0DF
:104F7000F0BDC046F0B583B0054668352A7F012AEA
:104F800002D1022003B0F0BD0646883624223260EA
:104F900007683A6802923A680124A2433A600722FD
:104FA0005207BB6893430B43BB60406E002820460A
:104FB00015D0B8680190B868400F0E49095C0E4AD8
:104FC000105CC000FBF744FC044601980001400F50
:104FD0000849095C084A105CC000FBF739FC2880CE
:104FE0006C8002983860002028772021316003B05F
:104FF000F0BDC046589B0008509B000870477047A2
:10500000F0B581B0044605468035A968EE680068B1
:105010008268120632D5212930D1EFF310800127A2
:1050200087F3108821688A6880239A438A6080F316
:105030001088E06F002808D0FDF7B2F8002804D0EF
:10504000E06FFDF76BF9202836D0EFF3108087F37F
:10505000108821680A68C0239A430A6080F3108888
:10506000EFF3108087F31088F905226893688B436B
:10507000936080F310882020A86020688168002059
:10508000490648D5222E46D1EFF31080012686F33B
:10509000108821688A6840239A438A6080F31088C8
:1050A000286800280DD0FDF77BF8002809D0286873
:1050B000FDF734F9202804D110202861032001B025
:1050C000F0BDEFF3108086F31088092149012268B2
:1050D00013688B43136080F31088EFF3108086F31E
:1050E000108821688A680D4B13408B6080F310880C
:1050F000E06E01280AD1EFF3108086F31088216852
:105100000A6810239A430A6080F310882020E86020
:1051100000206067E06601B0F0BDC046FEFFFFEF13
:1051200070B5002817D005468435242169600168D0
:105130000A6801239A430A6000260E604E608E6062
:10514000044600F08FFA3046EE606E60AE60E666B0
:105150002E70266770BD012070BD000080B500680C
:105160000349884200D080BD03F076FA80BDC04676
:1051700000380140F0B589B00368DF6920250121BE
:105180000691CE0232462F323A4019680890044602
:10519000803405939B68202A0495079710D1084610
:1051A0002840012212071A4080181F4616D008987E
:1051B000416F002900D158E10898884709B0F0BD37
:1051C00030460F3007421F4608D0CF480840069AA5
:1051D0001207551C3D40281800D091E0039410267A
:1051E0000846304042424241079D284630404442F2
:1051F000444114430898C06E401E421E9041204313
:1052000037D001240126B2053A4050425041EA020B
:105210002246059B00D50246002A00D1A6E02806BA
:1052200006D580200840F2051740C01900D0BDE126
:1052300040230A461A40504250416A06224600D591
:105240000246002A00D14AE1B2070A4050425041CA
:105250002A02224600D50246002A00D1B1E10029E7
:1052600000DAB3E1E80100D5B4E1002C00D0FCE0A5
:10527000B4E1089C5C34059806628068400600D55D
:105280007BE0618822886088002800D1EDE08A42B6
:1052900000D1EAE0EFF310800790012383F3108838
:1052A000092045010898374606683468AC433460E5
:1052B000079C84F31088EFF31084079483F310881D
:1052C0000568AE68C84C3440AC60079C84F3108815
:1052D000049C039DEC6000244467C466EFF31084D3
:1052E00083F3108803681D68BD431D6084F3108834
:1052F00002230367511A89B2FFF7E6FD09B0F0BD3A
:10530000009203940798069B1840424242411802BB
:1053100001910840444244411443059B05D10120BA
:105320001862039C22690243226101203C460290DC
:1053300004406042604107998A07069A00D50246F8
:10534000002A06D1022018620398016904220A4348
:1053500002616042604107994A07069A5ED4002ABA
:10536000039C5FD00798000765D46EE03005186293
:105370000898FFF744FE09B0F0BD22880398006842
:105380000068436899B2002900D19CE0914200D3A3
:1053900099E063800068800635D4EFF31082012124
:1053A00081F31088924B20330898056837462E68A1
:1053B0001E402E6082F31088EFF3108281F3108874
:1053C00003689D688D439D6082F31088EFF310821F
:1053D00081F3108803689D684026B5439D6082F381
:1053E0001088039B049ADA600022C266EFF31082F1
:1053F00081F3108800680168B943016082F3108866
:105400001868FCF7CDFE02210898016721886288A0
:10541000891A89B2FFF758FD09B0F0BD0246002A8B
:10542000039C9FD10420186220690222024322615A
:105430000798000709D50198049A1040054304D045
:1054400008201862226902432261029882060199AB
:105450000A4050425041079A324208D1069800282B
:10546000049A09D0206900280DD109B0F0BD06903A
:1054700006980028049AF5D11E6220691043206125
:1054800020690028F1D0079810400DD011400098F5
:1054900007400F4308D00898416F002904D0089CAA
:1054A000204688472368039C206928220240986888
:1054B00040210840801829D10898FFF74FFE0020AE
:1054C000206109B0F0BD8A42CFD100688006CCD5FA
:1054D000022208980267FFF7F7FC09B0F0BDEFF36E
:1054E000108186F310880898026814689C43146041
:1054F00081F31088002181670399049A8A6000F083
:10550000BBFA09B0F0BDC04620010004EFF31080E3
:10551000029E86F3108809225201089B1C682568A8
:105520009543256080F31088EFF3108086F3108890
:105530001A6894682C4D2540956080F31088D86EC9
:1055400001280CD1EFF31082029880F3108808989C
:10555000006803681024A343036082F31088039C4F
:105560000498E0600020089AD06650671068806850
:10557000400621D5EFF31082029880F31088089836
:10558000006883688B43836082F310882168002958
:1055900012D0164888630846FCF73AFE002800D16E
:1055A00063E72068816B884709B0F0BD0898816F78
:1055B000002900D000E658E70898FFF7CFFD09B0B2
:1055C000F0BD0898FFF71AFD09B0F0BD0026E8010C
:1055D00000D44AE63446002C00D046E70898FFF78E
:1055E00087FC09B0F0BDC046FEFFFFEFD178000890
:1055F000DFFEFFFFB0B500281ED004460546843507
:105600006868002804D100202870204600F05AF86D
:1056100024206860206801680125A9430160A06A10
:10562000002802D0204602F081F8204602F04AFD10
:10563000002803D02846B0BD0120B0BD0920C0021B
:1056400021684A6882434A6088682A2290438860B9
:105650000868012202430A60204602F0D1F805469C
:105660002846B0BD10B501689B4A91420FD09948B9
:10567000814224D10120000511490A6882430A6051
:10568000052000070C21FCF7B7FF1D2015E00121C4
:1056900089030B4A93688B43936005210A07032112
:1056A000490204461046FCF7A7FF80202058FCF76B
:1056B000E7FDE06FFCF7E4FD1B20FDF76DFC10BD7E
:1056C00058100240F0B597B0054600241694159482
:1056D00014941394129404A83821FAF752FD286800
:1056E0007D49884231D07B49884200D090E010202B
:1056F00004900125E802089004A8FDF7DDFE0028CB
:1057000001D0FBF713FE28054249CA680243CA606C
:10571000CA68024003920398086828430860086832
:10572000284003900820169015941494022613968E
:105730000C20129003980520000712A9FCF7F0FF37
:105740001D252846314622465DE002950126049635
:1057500004A8FDF7B1FE002801D0FBF7E7FDB00378
:105760002C494A6902434A614A69024003920398FC
:10577000086830430860086830400390072016909E
:105780001594149402201390032040021290039861
:105790000520000712A9FCF7C3FF1F4D6C622020F3
:1057A000802245211D4F6F60A960EC602C61019241
:1057B0006A61AC61EC6128622E1D3046FCF724FE64
:1057C000002801D0FBF7B2FD0298019A8650E862EA
:1057D0000546134E1020462134621437376071603D
:1057E000B060F46032617461B461F4613046FCF71A
:1057F0000BFE002801D0FBF799FDB562EE671B2573
:10580000032100222846FDF7E3FB2846FDF7D4FBE1
:1058100017B0F0BD4C100240740000200800024098
:10582000E8010020F0B581B08C23C358202B12D1A1
:10583000012400290CD0002A0AD001231C0385680A
:10584000A5420CD1CC070AD00469002C07D11C4614
:10585000204601B0F0BD0224204601B0F0BD002476
:10586000C4669E0205682E430D4FBE4204D102F06D
:105870006DFD204601B0F0BD6D682D02F7D5EFF348
:10588000108583F310889B06066837681F433760CE
:1058900085F3108802F05AFD204601B0F0BDC046E5
:1058A0000084004080B501680A4A91420ED00A4A3D
:1058B00091420DD1094901220A70802140580068A7
:1058C00040684021081A0649088080BD01F096FD15
:1058D00080BDC046008000400038014074000020B8
:1058E0007600002070470000F0B585B0074688209C
:1058F0003858202810D1012000290BD0002A09D0C7
:1059000001200403BD68A54209D1CD0707D03D6938
:10591000002D04D105B0F0BD022005B0F0BD01930B
:1059200002913D4654353946883100200390886005
:105930002120009108601646FCF7CCFF04906E8091
:105940002E80B868A04202D1386900285ED0029C3F
:10595000019E039A3968688800285ED0701C454B08
:105960002ED0002E49D00392C869000608D4FCF757
:10597000B1FF0499401AB04267D839680868F3E764
:10598000002C03D020788862641C07E0039A1088FA
:10599000384B18408862921C039200246888401E8D
:1059A000688068880028DFD137E010881840886256
:1059B000921C00246888401E6880688800282CD0CB
:1059C000C869000608D4C869000605D4C86900067D
:1059D00002D4C8690006F3D5002CE6D0207888628E
:1059E000641CE7E7108818408862921C00246888CD
:1059F000401E6880688800280FD0C869000622D53C
:105A0000002CEFD020788862641CF0E70024029A12
:105A1000019E396868880028A0D1CA690020520612
:105A200014D4002E0FD0721C15D1009BCA695206E7
:105A30000DD4CA6952060AD4CA69520607D4CA6983
:105A40005206F3D503E0FCF745FF0320009B20211D
:105A5000196005B0F0BD0446FCF73CFF0499401AFC
:105A6000B042F2D838680168C0694006F4D52046D3
:105A7000ECE7C046FF0100007047FEE7F0B585B0D7
:105A80000E4604464030049020688169C90606D459
:105A900000210F4601258269D30543D446E0102139
:105AA000C1618169890635D4711C30D01546012049
:105AB000002E6AD186030390C703FCF70BFF206812
:105AC00042680499897883693B4209D0324007D102
:105AD000202905D0416831434160FCF7FBFE0546B3
